{
  "contracts/SimpleDEX.sol": {
    "SimpleDEX": {
      "abi": [
        {
          "inputs": [
            {
              "internalType": "contract IERC20",
              "name": "_tokenA",
              "type": "address"
            },
            {
              "internalType": "contract IERC20",
              "name": "_tokenB",
              "type": "address"
            },
            {
              "internalType": "address",
              "name": "_feeReceiver",
              "type": "address"
            }
          ],
          "stateMutability": "nonpayable",
          "type": "constructor"
        },
        {
          "inputs": [
            {
              "internalType": "address",
              "name": "spender",
              "type": "address"
            },
            {
              "internalType": "uint256",
              "name": "allowance",
              "type": "uint256"
            },
            {
              "internalType": "uint256",
              "name": "needed",
              "type": "uint256"
            }
          ],
          "name": "ERC20InsufficientAllowance",
          "type": "error"
        },
        {
          "inputs": [
            {
              "internalType": "address",
              "name": "sender",
              "type": "address"
            },
            {
              "internalType": "uint256",
              "name": "balance",
              "type": "uint256"
            },
            {
              "internalType": "uint256",
              "name": "needed",
              "type": "uint256"
            }
          ],
          "name": "ERC20InsufficientBalance",
          "type": "error"
        },
        {
          "inputs": [
            {
              "internalType": "address",
              "name": "approver",
              "type": "address"
            }
          ],
          "name": "ERC20InvalidApprover",
          "type": "error"
        },
        {
          "inputs": [
            {
              "internalType": "address",
              "name": "receiver",
              "type": "address"
            }
          ],
          "name": "ERC20InvalidReceiver",
          "type": "error"
        },
        {
          "inputs": [
            {
              "internalType": "address",
              "name": "sender",
              "type": "address"
            }
          ],
          "name": "ERC20InvalidSender",
          "type": "error"
        },
        {
          "inputs": [
            {
              "internalType": "address",
              "name": "spender",
              "type": "address"
            }
          ],
          "name": "ERC20InvalidSpender",
          "type": "error"
        },
        {
          "anonymous": false,
          "inputs": [
            {
              "indexed": true,
              "internalType": "address",
              "name": "owner",
              "type": "address"
            },
            {
              "indexed": true,
              "internalType": "address",
              "name": "spender",
              "type": "address"
            },
            {
              "indexed": false,
              "internalType": "uint256",
              "name": "value",
              "type": "uint256"
            }
          ],
          "name": "Approval",
          "type": "event"
        },
        {
          "anonymous": false,
          "inputs": [
            {
              "indexed": true,
              "internalType": "address",
              "name": "provider",
              "type": "address"
            },
            {
              "indexed": false,
              "internalType": "uint256",
              "name": "amountA",
              "type": "uint256"
            },
            {
              "indexed": false,
              "internalType": "uint256",
              "name": "amountB",
              "type": "uint256"
            },
            {
              "indexed": false,
              "internalType": "uint256",
              "name": "lpTokens",
              "type": "uint256"
            }
          ],
          "name": "LiquidityAdded",
          "type": "event"
        },
        {
          "anonymous": false,
          "inputs": [
            {
              "indexed": true,
              "internalType": "address",
              "name": "provider",
              "type": "address"
            },
            {
              "indexed": false,
              "internalType": "uint256",
              "name": "amountA",
              "type": "uint256"
            },
            {
              "indexed": false,
              "internalType": "uint256",
              "name": "amountB",
              "type": "uint256"
            }
          ],
          "name": "LiquidityRemoved",
          "type": "event"
        },
        {
          "anonymous": false,
          "inputs": [
            {
              "indexed": true,
              "internalType": "address",
              "name": "sender",
              "type": "address"
            },
            {
              "indexed": false,
              "internalType": "address",
              "name": "tokenIn",
              "type": "address"
            },
            {
              "indexed": false,
              "internalType": "address",
              "name": "tokenOut",
              "type": "address"
            },
            {
              "indexed": false,
              "internalType": "uint256",
              "name": "amountIn",
              "type": "uint256"
            },
            {
              "indexed": false,
              "internalType": "uint256",
              "name": "amountOut",
              "type": "uint256"
            }
          ],
          "name": "Swapped",
          "type": "event"
        },
        {
          "anonymous": false,
          "inputs": [
            {
              "indexed": true,
              "internalType": "address",
              "name": "from",
              "type": "address"
            },
            {
              "indexed": true,
              "internalType": "address",
              "name": "to",
              "type": "address"
            },
            {
              "indexed": false,
              "internalType": "uint256",
              "name": "value",
              "type": "uint256"
            }
          ],
          "name": "Transfer",
          "type": "event"
        },
        {
          "inputs": [],
          "name": "FEE_PERCENT",
          "outputs": [
            {
              "internalType": "uint256",
              "name": "",
              "type": "uint256"
            }
          ],
          "stateMutability": "view",
          "type": "function"
        },
        {
          "inputs": [
            {
              "internalType": "uint256",
              "name": "amountA",
              "type": "uint256"
            },
            {
              "internalType": "uint256",
              "name": "amountB",
              "type": "uint256"
            }
          ],
          "name": "addLiquidity",
          "outputs": [
            {
              "internalType": "uint256",
              "name": "lpTokens",
              "type": "uint256"
            }
          ],
          "stateMutability": "nonpayable",
          "type": "function"
        },
        {
          "inputs": [
            {
              "internalType": "address",
              "name": "owner",
              "type": "address"
            },
            {
              "internalType": "address",
              "name": "spender",
              "type": "address"
            }
          ],
          "name": "allowance",
          "outputs": [
            {
              "internalType": "uint256",
              "name": "",
              "type": "uint256"
            }
          ],
          "stateMutability": "view",
          "type": "function"
        },
        {
          "inputs": [
            {
              "internalType": "address",
              "name": "spender",
              "type": "address"
            },
            {
              "internalType": "uint256",
              "name": "value",
              "type": "uint256"
            }
          ],
          "name": "approve",
          "outputs": [
            {
              "internalType": "bool",
              "name": "",
              "type": "bool"
            }
          ],
          "stateMutability": "nonpayable",
          "type": "function"
        },
        {
          "inputs": [
            {
              "internalType": "address",
              "name": "account",
              "type": "address"
            }
          ],
          "name": "balanceOf",
          "outputs": [
            {
              "internalType": "uint256",
              "name": "",
              "type": "uint256"
            }
          ],
          "stateMutability": "view",
          "type": "function"
        },
        {
          "inputs": [],
          "name": "decimals",
          "outputs": [
            {
              "internalType": "uint8",
              "name": "",
              "type": "uint8"
            }
          ],
          "stateMutability": "view",
          "type": "function"
        },
        {
          "inputs": [],
          "name": "feeReceiver",
          "outputs": [
            {
              "internalType": "address",
              "name": "",
              "type": "address"
            }
          ],
          "stateMutability": "view",
          "type": "function"
        },
        {
          "inputs": [],
          "name": "name",
          "outputs": [
            {
              "internalType": "string",
              "name": "",
              "type": "string"
            }
          ],
          "stateMutability": "view",
          "type": "function"
        },
        {
          "inputs": [
            {
              "internalType": "uint256",
              "name": "lpTokenAmount",
              "type": "uint256"
            }
          ],
          "name": "removeLiquidity",
          "outputs": [
            {
              "internalType": "uint256",
              "name": "amountA",
              "type": "uint256"
            },
            {
              "internalType": "uint256",
              "name": "amountB",
              "type": "uint256"
            }
          ],
          "stateMutability": "nonpayable",
          "type": "function"
        },
        {
          "inputs": [],
          "name": "reserveA",
          "outputs": [
            {
              "internalType": "uint256",
              "name": "",
              "type": "uint256"
            }
          ],
          "stateMutability": "view",
          "type": "function"
        },
        {
          "inputs": [],
          "name": "reserveB",
          "outputs": [
            {
              "internalType": "uint256",
              "name": "",
              "type": "uint256"
            }
          ],
          "stateMutability": "view",
          "type": "function"
        },
        {
          "inputs": [
            {
              "internalType": "address",
              "name": "tokenIn",
              "type": "address"
            },
            {
              "internalType": "address",
              "name": "tokenOut",
              "type": "address"
            },
            {
              "internalType": "uint256",
              "name": "amountIn",
              "type": "uint256"
            }
          ],
          "name": "swap",
          "outputs": [
            {
              "internalType": "uint256",
              "name": "amountOut",
              "type": "uint256"
            }
          ],
          "stateMutability": "nonpayable",
          "type": "function"
        },
        {
          "inputs": [],
          "name": "symbol",
          "outputs": [
            {
              "internalType": "string",
              "name": "",
              "type": "string"
            }
          ],
          "stateMutability": "view",
          "type": "function"
        },
        {
          "inputs": [],
          "name": "tokenA",
          "outputs": [
            {
              "internalType": "contract IERC20",
              "name": "",
              "type": "address"
            }
          ],
          "stateMutability": "view",
          "type": "function"
        },
        {
          "inputs": [],
          "name": "tokenB",
          "outputs": [
            {
              "internalType": "contract IERC20",
              "name": "",
              "type": "address"
            }
          ],
          "stateMutability": "view",
          "type": "function"
        },
        {
          "inputs": [],
          "name": "totalSupply",
          "outputs": [
            {
              "internalType": "uint256",
              "name": "",
              "type": "uint256"
            }
          ],
          "stateMutability": "view",
          "type": "function"
        },
        {
          "inputs": [
            {
              "internalType": "address",
              "name": "to",
              "type": "address"
            },
            {
              "internalType": "uint256",
              "name": "value",
              "type": "uint256"
            }
          ],
          "name": "transfer",
          "outputs": [
            {
              "internalType": "bool",
              "name": "",
              "type": "bool"
            }
          ],
          "stateMutability": "nonpayable",
          "type": "function"
        },
        {
          "inputs": [
            {
              "internalType": "address",
              "name": "from",
              "type": "address"
            },
            {
              "internalType": "address",
              "name": "to",
              "type": "address"
            },
            {
              "internalType": "uint256",
              "name": "value",
              "type": "uint256"
            }
          ],
          "name": "transferFrom",
          "outputs": [
            {
              "internalType": "bool",
              "name": "",
              "type": "bool"
            }
          ],
          "stateMutability": "nonpayable",
          "type": "function"
        }
      ],
      "evm": {
        "bytecode": {
          "linkReferences": {},
          "object": "608060405234801561001057600080fd5b50604051612e27380380612e278339818101604052810190610032919061029b565b6040518060400160405280601281526020017f4c6971756964697479506f6f6c546f6b656e00000000000000000000000000008152506040518060400160405280600381526020017f4c5054000000000000000000000000000000000000000000000000000000000081525081600390816100ad919061053e565b5080600490816100bd919061053e565b505050600073ffffffffffffffffffffffffffffffffffffffff168173ffffffffffffffffffffffffffffffffffffffff160361012f576040517f08c379a00000000000000000000000000000000000000000000000000000000081526004016101269061066d565b60405180910390fd5b82600560006101000a81548173ffffffffffffffffffffffffffffffffffffffff021916908373ffffffffffffffffffffffffffffffffffffffff16021790555081600660006101000a81548173ffffffffffffffffffffffffffffffffffffffff021916908373ffffffffffffffffffffffffffffffffffffffff16021790555080600960006101000a81548173ffffffffffffffffffffffffffffffffffffffff021916908373ffffffffffffffffffffffffffffffffffffffff16021790555050505061068d565b600080fd5b600073ffffffffffffffffffffffffffffffffffffffff82169050919050565b600061022a826101ff565b9050919050565b600061023c8261021f565b9050919050565b61024c81610231565b811461025757600080fd5b50565b60008151905061026981610243565b92915050565b6102788161021f565b811461028357600080fd5b50565b6000815190506102958161026f565b92915050565b6000806000606084860312156102b4576102b36101fa565b5b60006102c28682870161025a565b93505060206102d38682870161025a565b92505060406102e486828701610286565b9150509250925092565b600081519050919050565b7f4e487b7100000000000000000000000000000000000000000000000000000000600052604160045260246000fd5b7f4e487b7100000000000000000000000000000000000000000000000000000000600052602260045260246000fd5b6000600282049050600182168061036f57607f821691505b60208210810361038257610381610328565b5b50919050565b60008190508160005260206000209050919050565b60006020601f8301049050919050565b600082821b905092915050565b6000600883026103ea7fffffffffffffffffffffffffffffffffffffffffffffffffffffffffffffffff826103ad565b6103f486836103ad565b95508019841693508086168417925050509392505050565b6000819050919050565b6000819050919050565b600061043b6104366104318461040c565b610416565b61040c565b9050919050565b6000819050919050565b61045583610420565b61046961046182610442565b8484546103ba565b825550505050565b600090565b61047e610471565b61048981848461044c565b505050565b5b818110156104ad576104a2600082610476565b60018101905061048f565b5050565b601f8211156104f2576104c381610388565b6104cc8461039d565b810160208510156104db578190505b6104ef6104e78561039d565b83018261048e565b50505b505050565b600082821c905092915050565b6000610515600019846008026104f7565b1980831691505092915050565b600061052e8383610504565b9150826002028217905092915050565b610547826102ee565b67ffffffffffffffff8111156105605761055f6102f9565b5b61056a8254610357565b6105758282856104b1565b600060209050601f8311600181146105a85760008415610596578287015190505b6105a08582610522565b865550610608565b601f1984166105b686610388565b60005b828110156105de578489015182556001820191506020850194506020810190506105b9565b868310156105fb57848901516105f7601f891682610504565b8355505b6001600288020188555050505b505050505050565b600082825260208201905092915050565b7f496e76616c696420666565207265636569766572000000000000000000000000600082015250565b6000610657601483610610565b915061066282610621565b602082019050919050565b600060208201905081810360008301526106868161064a565b9050919050565b61278b8061069c6000396000f3fe608060405234801561001057600080fd5b50600436106101165760003560e01c806395d89b41116100a2578063b3f0067411610071578063b3f006741461030e578063dc5fa6c51461032c578063dd62ed3e1461034a578063df791e501461037a578063eaf98d23146103aa57610116565b806395d89b411461025f5780639c8f9f231461027d5780639cd441da146102ae578063a9059cbb146102de57610116565b806319e36f3b116100e957806319e36f3b146101a557806323b872dd146101c3578063313ce567146101f35780635f64b55b1461021157806370a082311461022f57610116565b806306fdde031461011b578063095ea7b3146101395780630fc63d101461016957806318160ddd14610187575b600080fd5b6101236103c8565b6040516101309190611c20565b60405180910390f35b610153600480360381019061014e9190611cdb565b61045a565b6040516101609190611d36565b60405180910390f35b61017161047d565b60405161017e9190611db0565b60405180910390f35b61018f6104a3565b60405161019c9190611dda565b60405180910390f35b6101ad6104ad565b6040516101ba9190611dda565b60405180910390f35b6101dd60048036038101906101d89190611df5565b6104b3565b6040516101ea9190611d36565b60405180910390f35b6101fb6104e2565b6040516102089190611e64565b60405180910390f35b6102196104eb565b6040516102269190611db0565b60405180910390f35b61024960048036038101906102449190611e7f565b610511565b6040516102569190611dda565b60405180910390f35b610267610559565b6040516102749190611c20565b60405180910390f35b61029760048036038101906102929190611eac565b6105eb565b6040516102a5929190611ed9565b60405180910390f35b6102c860048036038101906102c39190611f02565b610913565b6040516102d59190611dda565b60405180910390f35b6102f860048036038101906102f39190611cdb565b610c8f565b6040516103059190611d36565b60405180910390f35b610316610cb2565b6040516103239190611f51565b60405180910390f35b610334610cd8565b6040516103419190611dda565b60405180910390f35b610364600480360381019061035f9190611f6c565b610cde565b6040516103719190611dda565b60405180910390f35b610394600480360381019061038f9190611df5565b610d65565b6040516103a19190611dda565b60405180910390f35b6103b261146f565b6040516103bf9190611dda565b60405180910390f35b6060600380546103d790611fdb565b80601f016020809104026020016040519081016040528092919081815260200182805461040390611fdb565b80156104505780601f1061042557610100808354040283529160200191610450565b820191906000526020600020905b81548152906001019060200180831161043357829003601f168201915b5050505050905090565b600080610465611474565b905061047281858561147c565b600191505092915050565b600560009054906101000a900473ffffffffffffffffffffffffffffffffffffffff1681565b6000600254905090565b60085481565b6000806104be611474565b90506104cb85828561148e565b6104d6858585611522565b60019150509392505050565b60006012905090565b600660009054906101000a900473ffffffffffffffffffffffffffffffffffffffff1681565b60008060008373ffffffffffffffffffffffffffffffffffffffff1673ffffffffffffffffffffffffffffffffffffffff168152602001908152602001600020549050919050565b60606004805461056890611fdb565b80601f016020809104026020016040519081016040528092919081815260200182805461059490611fdb565b80156105e15780601f106105b6576101008083540402835291602001916105e1565b820191906000526020600020905b8154815290600101906020018083116105c457829003601f168201915b5050505050905090565b600080600960149054906101000a900460ff161561063e576040517f08c379a000000000000000000000000000000000000000000000000000000000815260040161063590612058565b60405180910390fd5b6001600960146101000a81548160ff0219169083151502179055506000831161069c576040517f08c379a0000000000000000000000000000000000000000000000000000000008152600401610693906120c4565b60405180910390fd5b6106a46104a3565b600754846106b29190612113565b6106bc9190612184565b91506106c66104a3565b600854846106d49190612113565b6106de9190612184565b90506106ea3384611616565b81600760008282546106fc91906121b5565b92505081905550806008600082825461071591906121b5565b92505081905550600560009054906101000a900473ffffffffffffffffffffffffffffffffffffffff1673ffffffffffffffffffffffffffffffffffffffff1663a9059cbb33846040518363ffffffff1660e01b81526004016107799291906121e9565b6020604051808303816000875af1158015610798573d6000803e3d6000fd5b505050506040513d601f19601f820116820180604052508101906107bc919061223e565b80156108645750600660009054906101000a900473ffffffffffffffffffffffffffffffffffffffff1673ffffffffffffffffffffffffffffffffffffffff1663a9059cbb33836040518363ffffffff1660e01b81526004016108209291906121e9565b6020604051808303816000875af115801561083f573d6000803e3d6000fd5b505050506040513d601f19601f82011682018060405250810190610863919061223e565b5b6108a3576040517f08c379a000000000000000000000000000000000000000000000000000000000815260040161089a906122b7565b60405180910390fd5b3373ffffffffffffffffffffffffffffffffffffffff167f96cd817c6329656790ef8fba7675405193677d39619571282f5e21f3a98cd05983836040516108eb929190611ed9565b60405180910390a26000600960146101000a81548160ff021916908315150217905550915091565b6000600960149054906101000a900460ff1615610965576040517f08c379a000000000000000000000000000000000000000000000000000000000815260040161095c90612058565b60405180910390fd5b6001600960146101000a81548160ff0219169083151502179055506000831180156109905750600082115b6109cf576040517f08c379a00000000000000000000000000000000000000000000000000000000081526004016109c690612323565b60405180910390fd5b600560009054906101000a900473ffffffffffffffffffffffffffffffffffffffff1673ffffffffffffffffffffffffffffffffffffffff166323b872dd3330866040518463ffffffff1660e01b8152600401610a2e93929190612343565b6020604051808303816000875af1158015610a4d573d6000803e3d6000fd5b505050506040513d601f19601f82011682018060405250810190610a71919061223e565b8015610b1b5750600660009054906101000a900473ffffffffffffffffffffffffffffffffffffffff1673ffffffffffffffffffffffffffffffffffffffff166323b872dd3330856040518463ffffffff1660e01b8152600401610ad793929190612343565b6020604051808303816000875af1158015610af6573d6000803e3d6000fd5b505050506040513d601f19601f82011682018060405250810190610b1a919061223e565b5b610b5a576040517f08c379a0000000000000000000000000000000000000000000000000000000008152600401610b51906122b7565b60405180910390fd5b6000610b646104a3565b03610b8457610b7d8284610b789190612113565b611698565b9050610be0565b6000600754610b916104a3565b85610b9c9190612113565b610ba69190612184565b90506000600854610bb56104a3565b85610bc09190612113565b610bca9190612184565b9050808210610bd95780610bdb565b815b925050505b8260076000828254610bf2919061237a565b925050819055508160086000828254610c0b919061237a565b92505081905550610c1c3382611712565b3373ffffffffffffffffffffffffffffffffffffffff167f64b83944e79c3ce8d4c297411de637c3e102d064677aac0c163976ebdcd6f50e848484604051610c66939291906123ae565b60405180910390a26000600960146101000a81548160ff02191690831515021790555092915050565b600080610c9a611474565b9050610ca7818585611522565b600191505092915050565b600960009054906101000a900473ffffffffffffffffffffffffffffffffffffffff1681565b60075481565b6000600160008473ffffffffffffffffffffffffffffffffffffffff1673ffffffffffffffffffffffffffffffffffffffff16815260200190815260200160002060008373ffffffffffffffffffffffffffffffffffffffff1673ffffffffffffffffffffffffffffffffffffffff16815260200190815260200160002054905092915050565b6000600960149054906101000a900460ff1615610db7576040517f08c379a0000000000000000000000000000000000000000000000000000000008152600401610dae90612058565b60405180910390fd5b6001600960146101000a81548160ff021916908315150217905550600560009054906101000a900473ffffffffffffffffffffffffffffffffffffffff1673ffffffffffffffffffffffffffffffffffffffff168473ffffffffffffffffffffffffffffffffffffffff161480610e7b5750600660009054906101000a900473ffffffffffffffffffffffffffffffffffffffff1673ffffffffffffffffffffffffffffffffffffffff168473ffffffffffffffffffffffffffffffffffffffff16145b610eba576040517f08c379a0000000000000000000000000000000000000000000000000000000008152600401610eb190612431565b60405180910390fd5b600560009054906101000a900473ffffffffffffffffffffffffffffffffffffffff1673ffffffffffffffffffffffffffffffffffffffff168373ffffffffffffffffffffffffffffffffffffffff161480610f635750600660009054906101000a900473ffffffffffffffffffffffffffffffffffffffff1673ffffffffffffffffffffffffffffffffffffffff168373ffffffffffffffffffffffffffffffffffffffff16145b610fa2576040517f08c379a0000000000000000000000000000000000000000000000000000000008152600401610f999061249d565b60405180910390fd5b8273ffffffffffffffffffffffffffffffffffffffff168473ffffffffffffffffffffffffffffffffffffffff1603611010576040517f08c379a000000000000000000000000000000000000000000000000000000000815260040161100790612509565b60405180910390fd5b60008211611053576040517f08c379a000000000000000000000000000000000000000000000000000000000815260040161104a90612575565b60405180910390fd5b6000849050600084905060006103e860058661106f9190612113565b6110799190612184565b90506000818661108991906121b5565b90508373ffffffffffffffffffffffffffffffffffffffff166323b872dd3330896040518463ffffffff1660e01b81526004016110c893929190612343565b6020604051808303816000875af11580156110e7573d6000803e3d6000fd5b505050506040513d601f19601f8201168201806040525081019061110b919061223e565b61114a576040517f08c379a0000000000000000000000000000000000000000000000000000000008152600401611141906125e1565b60405180910390fd5b8373ffffffffffffffffffffffffffffffffffffffff1663a9059cbb600960009054906101000a900473ffffffffffffffffffffffffffffffffffffffff16846040518363ffffffff1660e01b81526004016111a79291906121e9565b6020604051808303816000875af11580156111c6573d6000803e3d6000fd5b505050506040513d601f19601f820116820180604052508101906111ea919061223e565b611229576040517f08c379a00000000000000000000000000000000000000000000000000000000081526004016112209061264d565b60405180910390fd5b600560009054906101000a900473ffffffffffffffffffffffffffffffffffffffff1673ffffffffffffffffffffffffffffffffffffffff168873ffffffffffffffffffffffffffffffffffffffff16036112dd578060075461128c919061237a565b8160085461129a9190612113565b6112a49190612184565b945080600760008282546112b8919061237a565b9250508190555084600860008282546112d191906121b5565b92505081905550611338565b806008546112eb919061237a565b816007546112f99190612113565b6113039190612184565b94508060086000828254611317919061237a565b92505081905550846007600082825461133091906121b5565b925050819055505b8273ffffffffffffffffffffffffffffffffffffffff1663a9059cbb33876040518363ffffffff1660e01b81526004016113739291906121e9565b6020604051808303816000875af1158015611392573d6000803e3d6000fd5b505050506040513d601f19601f820116820180604052508101906113b6919061223e565b6113f5576040517f08c379a00000000000000000000000000000000000000000000000000000000081526004016113ec906126b9565b60405180910390fd5b3373ffffffffffffffffffffffffffffffffffffffff167f6782190c91d4a7e8ad2a867deed6ec0a970cab8ff137ae2bd4abd92b3810f4d38989898960405161144194939291906126d9565b60405180910390a2505050506000600960146101000a81548160ff0219169083151502179055509392505050565b600581565b600033905090565b6114898383836001611794565b505050565b600061149a8484610cde565b90507fffffffffffffffffffffffffffffffffffffffffffffffffffffffffffffffff811461151c578181101561150c578281836040517ffb8f41b20000000000000000000000000000000000000000000000000000000081526004016115039392919061271e565b60405180910390fd5b61151b84848484036000611794565b5b50505050565b600073ffffffffffffffffffffffffffffffffffffffff168373ffffffffffffffffffffffffffffffffffffffff16036115945760006040517f96c6fd1e00000000000000000000000000000000000000000000000000000000815260040161158b9190611f51565b60405180910390fd5b600073ffffffffffffffffffffffffffffffffffffffff168273ffffffffffffffffffffffffffffffffffffffff16036116065760006040517fec442f050000000000000000000000000000000000000000000000000000000081526004016115fd9190611f51565b60405180910390fd5b61161183838361196b565b505050565b600073ffffffffffffffffffffffffffffffffffffffff168273ffffffffffffffffffffffffffffffffffffffff16036116885760006040517f96c6fd1e00000000000000000000000000000000000000000000000000000000815260040161167f9190611f51565b60405180910390fd5b6116948260008361196b565b5050565b600060038211156116ff57819050600060016002846116b79190612184565b6116c1919061237a565b90505b818110156116f95780915060028182856116de9190612184565b6116e8919061237a565b6116f29190612184565b90506116c4565b5061170d565b6000821461170c57600190505b5b919050565b600073ffffffffffffffffffffffffffffffffffffffff168273ffffffffffffffffffffffffffffffffffffffff16036117845760006040517fec442f0500000000000000000000000000000000000000000000000000000000815260040161177b9190611f51565b60405180910390fd5b6117906000838361196b565b5050565b600073ffffffffffffffffffffffffffffffffffffffff168473ffffffffffffffffffffffffffffffffffffffff16036118065760006040517fe602df050000000000000000000000000000000000000000000000000000000081526004016117fd9190611f51565b60405180910390fd5b600073ffffffffffffffffffffffffffffffffffffffff168373ffffffffffffffffffffffffffffffffffffffff16036118785760006040517f94280d6200000000000000000000000000000000000000000000000000000000815260040161186f9190611f51565b60405180910390fd5b81600160008673ffffffffffffffffffffffffffffffffffffffff1673ffffffffffffffffffffffffffffffffffffffff16815260200190815260200160002060008573ffffffffffffffffffffffffffffffffffffffff1673ffffffffffffffffffffffffffffffffffffffff168152602001908152602001600020819055508015611965578273ffffffffffffffffffffffffffffffffffffffff168473ffffffffffffffffffffffffffffffffffffffff167f8c5be1e5ebec7d5bd14f71427d1e84f3dd0314c0f7b2291e5b200ac8c7c3b9258460405161195c9190611dda565b60405180910390a35b50505050565b600073ffffffffffffffffffffffffffffffffffffffff168373ffffffffffffffffffffffffffffffffffffffff16036119bd5780600260008282546119b1919061237a565b92505081905550611a90565b60008060008573ffffffffffffffffffffffffffffffffffffffff1673ffffffffffffffffffffffffffffffffffffffff16815260200190815260200160002054905081811015611a49578381836040517fe450d38c000000000000000000000000000000000000000000000000000000008152600401611a409392919061271e565b60405180910390fd5b8181036000808673ffffffffffffffffffffffffffffffffffffffff1673ffffffffffffffffffffffffffffffffffffffff16815260200190815260200160002081905550505b600073ffffffffffffffffffffffffffffffffffffffff168273ffffffffffffffffffffffffffffffffffffffff1603611ad95780600260008282540392505081905550611b26565b806000808473ffffffffffffffffffffffffffffffffffffffff1673ffffffffffffffffffffffffffffffffffffffff168152602001908152602001600020600082825401925050819055505b8173ffffffffffffffffffffffffffffffffffffffff168373ffffffffffffffffffffffffffffffffffffffff167fddf252ad1be2c89b69c2b068fc378daa952ba7f163c4a11628f55a4df523b3ef83604051611b839190611dda565b60405180910390a3505050565b600081519050919050565b600082825260208201905092915050565b60005b83811015611bca578082015181840152602081019050611baf565b60008484015250505050565b6000601f19601f8301169050919050565b6000611bf282611b90565b611bfc8185611b9b565b9350611c0c818560208601611bac565b611c1581611bd6565b840191505092915050565b60006020820190508181036000830152611c3a8184611be7565b905092915050565b600080fd5b600073ffffffffffffffffffffffffffffffffffffffff82169050919050565b6000611c7282611c47565b9050919050565b611c8281611c67565b8114611c8d57600080fd5b50565b600081359050611c9f81611c79565b92915050565b6000819050919050565b611cb881611ca5565b8114611cc357600080fd5b50565b600081359050611cd581611caf565b92915050565b60008060408385031215611cf257611cf1611c42565b5b6000611d0085828601611c90565b9250506020611d1185828601611cc6565b9150509250929050565b60008115159050919050565b611d3081611d1b565b82525050565b6000602082019050611d4b6000830184611d27565b92915050565b6000819050919050565b6000611d76611d71611d6c84611c47565b611d51565b611c47565b9050919050565b6000611d8882611d5b565b9050919050565b6000611d9a82611d7d565b9050919050565b611daa81611d8f565b82525050565b6000602082019050611dc56000830184611da1565b92915050565b611dd481611ca5565b82525050565b6000602082019050611def6000830184611dcb565b92915050565b600080600060608486031215611e0e57611e0d611c42565b5b6000611e1c86828701611c90565b9350506020611e2d86828701611c90565b9250506040611e3e86828701611cc6565b9150509250925092565b600060ff82169050919050565b611e5e81611e48565b82525050565b6000602082019050611e796000830184611e55565b92915050565b600060208284031215611e9557611e94611c42565b5b6000611ea384828501611c90565b91505092915050565b600060208284031215611ec257611ec1611c42565b5b6000611ed084828501611cc6565b91505092915050565b6000604082019050611eee6000830185611dcb565b611efb6020830184611dcb565b9392505050565b60008060408385031215611f1957611f18611c42565b5b6000611f2785828601611cc6565b9250506020611f3885828601611cc6565b9150509250929050565b611f4b81611c67565b82525050565b6000602082019050611f666000830184611f42565b92915050565b60008060408385031215611f8357611f82611c42565b5b6000611f9185828601611c90565b9250506020611fa285828601611c90565b9150509250929050565b7f4e487b7100000000000000000000000000000000000000000000000000000000600052602260045260246000fd5b60006002820490506001821680611ff357607f821691505b60208210810361200657612005611fac565b5b50919050565b7f5265656e7472616e742063616c6c000000000000000000000000000000000000600082015250565b6000612042600e83611b9b565b915061204d8261200c565b602082019050919050565b6000602082019050818103600083015261207181612035565b9050919050565b7f496e76616c6964204c5020746f6b656e20616d6f756e74000000000000000000600082015250565b60006120ae601783611b9b565b91506120b982612078565b602082019050919050565b600060208201905081810360008301526120dd816120a1565b9050919050565b7f4e487b7100000000000000000000000000000000000000000000000000000000600052601160045260246000fd5b600061211e82611ca5565b915061212983611ca5565b925082820261213781611ca5565b9150828204841483151761214e5761214d6120e4565b5b5092915050565b7f4e487b7100000000000000000000000000000000000000000000000000000000600052601260045260246000fd5b600061218f82611ca5565b915061219a83611ca5565b9250826121aa576121a9612155565b5b828204905092915050565b60006121c082611ca5565b91506121cb83611ca5565b92508282039050818111156121e3576121e26120e4565b5b92915050565b60006040820190506121fe6000830185611f42565b61220b6020830184611dcb565b9392505050565b61221b81611d1b565b811461222657600080fd5b50565b60008151905061223881612212565b92915050565b60006020828403121561225457612253611c42565b5b600061226284828501612229565b91505092915050565b7f546f6b656e207472616e73666572206661696c65640000000000000000000000600082015250565b60006122a1601583611b9b565b91506122ac8261226b565b602082019050919050565b600060208201905081810360008301526122d081612294565b9050919050565b7f496e76616c696420616d6f756e74730000000000000000000000000000000000600082015250565b600061230d600f83611b9b565b9150612318826122d7565b602082019050919050565b6000602082019050818103600083015261233c81612300565b9050919050565b60006060820190506123586000830186611f42565b6123656020830185611f42565b6123726040830184611dcb565b949350505050565b600061238582611ca5565b915061239083611ca5565b92508282019050808211156123a8576123a76120e4565b5b92915050565b60006060820190506123c36000830186611dcb565b6123d06020830185611dcb565b6123dd6040830184611dcb565b949350505050565b7f496e76616c696420696e70757420746f6b656e00000000000000000000000000600082015250565b600061241b601383611b9b565b9150612426826123e5565b602082019050919050565b6000602082019050818103600083015261244a8161240e565b9050919050565b7f496e76616c6964206f757470757420746f6b656e000000000000000000000000600082015250565b6000612487601483611b9b565b915061249282612451565b602082019050919050565b600060208201905081810360008301526124b68161247a565b9050919050565b7f43616e6e6f7420737761702073616d6520746f6b656e00000000000000000000600082015250565b60006124f3601683611b9b565b91506124fe826124bd565b602082019050919050565b60006020820190508181036000830152612522816124e6565b9050919050565b7f496e76616c696420616d6f756e74000000000000000000000000000000000000600082015250565b600061255f600e83611b9b565b915061256a82612529565b602082019050919050565b6000602082019050818103600083015261258e81612552565b9050919050565b7f496e707574207472616e73666572206661696c65640000000000000000000000600082015250565b60006125cb601583611b9b565b91506125d682612595565b602082019050919050565b600060208201905081810360008301526125fa816125be565b9050919050565b7f466565207472616e73666572206661696c656400000000000000000000000000600082015250565b6000612637601383611b9b565b915061264282612601565b602082019050919050565b600060208201905081810360008301526126668161262a565b9050919050565b7f4f7574707574207472616e73666572206661696c656400000000000000000000600082015250565b60006126a3601683611b9b565b91506126ae8261266d565b602082019050919050565b600060208201905081810360008301526126d281612696565b9050919050565b60006080820190506126ee6000830187611f42565b6126fb6020830186611f42565b6127086040830185611dcb565b6127156060830184611dcb565b95945050505050565b60006060820190506127336000830186611f42565b6127406020830185611dcb565b61274d6040830184611dcb565b94935050505056fea2646970667358221220ff54192f5e9261c755b42837390248791091d54da305865f8e16c84f6172885964736f6c634300081c0033",
          "opcodes": "PUSH1 0x80 PUSH1 0x40 MSTORE CALLVALUE DUP1 ISZERO PUSH2 0x10 JUMPI PUSH1 0x0 DUP1 REVERT JUMPDEST POP PUSH1 0x40 MLOAD PUSH2 0x2E27 CODESIZE SUB DUP1 PUSH2 0x2E27 DUP4 CODECOPY DUP2 DUP2 ADD PUSH1 0x40 MSTORE DUP2 ADD SWAP1 PUSH2 0x32 SWAP2 SWAP1 PUSH2 0x29B JUMP JUMPDEST PUSH1 0x40 MLOAD DUP1 PUSH1 0x40 ADD PUSH1 0x40 MSTORE DUP1 PUSH1 0x12 DUP2 MSTORE PUSH1 0x20 ADD PUSH32 0x4C6971756964697479506F6F6C546F6B656E0000000000000000000000000000 DUP2 MSTORE POP PUSH1 0x40 MLOAD DUP1 PUSH1 0x40 ADD PUSH1 0x40 MSTORE DUP1 PUSH1 0x3 DUP2 MSTORE PUSH1 0x20 ADD PUSH32 0x4C50540000000000000000000000000000000000000000000000000000000000 DUP2 MSTORE POP DUP2 PUSH1 0x3 SWAP1 DUP2 PUSH2 0xAD SWAP2 SWAP1 PUSH2 0x53E JUMP JUMPDEST POP DUP1 PUSH1 0x4 SWAP1 DUP2 PUSH2 0xBD SWAP2 SWAP1 PUSH2 0x53E JUMP JUMPDEST POP POP POP PUSH1 0x0 PUSH20 0xFFFFFFFFFFFFFFFFFFFFFFFFFFFFFFFFFFFFFFFF AND DUP2 PUSH20 0xFFFFFFFFFFFFFFFFFFFFFFFFFFFFFFFFFFFFFFFF AND SUB PUSH2 0x12F JUMPI PUSH1 0x40 MLOAD PUSH32 0x8C379A000000000000000000000000000000000000000000000000000000000 DUP2 MSTORE PUSH1 0x4 ADD PUSH2 0x126 SWAP1 PUSH2 0x66D JUMP JUMPDEST PUSH1 0x40 MLOAD DUP1 SWAP2 SUB SWAP1 REVERT JUMPDEST DUP3 PUSH1 0x5 PUSH1 0x0 PUSH2 0x100 EXP DUP2 SLOAD DUP2 PUSH20 0xFFFFFFFFFFFFFFFFFFFFFFFFFFFFFFFFFFFFFFFF MUL NOT AND SWAP1 DUP4 PUSH20 0xFFFFFFFFFFFFFFFFFFFFFFFFFFFFFFFFFFFFFFFF AND MUL OR SWAP1 SSTORE POP DUP2 PUSH1 0x6 PUSH1 0x0 PUSH2 0x100 EXP DUP2 SLOAD DUP2 PUSH20 0xFFFFFFFFFFFFFFFFFFFFFFFFFFFFFFFFFFFFFFFF MUL NOT AND SWAP1 DUP4 PUSH20 0xFFFFFFFFFFFFFFFFFFFFFFFFFFFFFFFFFFFFFFFF AND MUL OR SWAP1 SSTORE POP DUP1 PUSH1 0x9 PUSH1 0x0 PUSH2 0x100 EXP DUP2 SLOAD DUP2 PUSH20 0xFFFFFFFFFFFFFFFFFFFFFFFFFFFFFFFFFFFFFFFF MUL NOT AND SWAP1 DUP4 PUSH20 0xFFFFFFFFFFFFFFFFFFFFFFFFFFFFFFFFFFFFFFFF AND MUL OR SWAP1 SSTORE POP POP POP POP PUSH2 0x68D JUMP JUMPDEST PUSH1 0x0 DUP1 REVERT JUMPDEST PUSH1 0x0 PUSH20 0xFFFFFFFFFFFFFFFFFFFFFFFFFFFFFFFFFFFFFFFF DUP3 AND SWAP1 POP SWAP2 SWAP1 POP JUMP JUMPDEST PUSH1 0x0 PUSH2 0x22A DUP3 PUSH2 0x1FF JUMP JUMPDEST SWAP1 POP SWAP2 SWAP1 POP JUMP JUMPDEST PUSH1 0x0 PUSH2 0x23C DUP3 PUSH2 0x21F JUMP JUMPDEST SWAP1 POP SWAP2 SWAP1 POP JUMP JUMPDEST PUSH2 0x24C DUP2 PUSH2 0x231 JUMP JUMPDEST DUP2 EQ PUSH2 0x257 JUMPI PUSH1 0x0 DUP1 REVERT JUMPDEST POP JUMP JUMPDEST PUSH1 0x0 DUP2 MLOAD SWAP1 POP PUSH2 0x269 DUP2 PUSH2 0x243 JUMP JUMPDEST SWAP3 SWAP2 POP POP JUMP JUMPDEST PUSH2 0x278 DUP2 PUSH2 0x21F JUMP JUMPDEST DUP2 EQ PUSH2 0x283 JUMPI PUSH1 0x0 DUP1 REVERT JUMPDEST POP JUMP JUMPDEST PUSH1 0x0 DUP2 MLOAD SWAP1 POP PUSH2 0x295 DUP2 PUSH2 0x26F JUMP JUMPDEST SWAP3 SWAP2 POP POP JUMP JUMPDEST PUSH1 0x0 DUP1 PUSH1 0x0 PUSH1 0x60 DUP5 DUP7 SUB SLT ISZERO PUSH2 0x2B4 JUMPI PUSH2 0x2B3 PUSH2 0x1FA JUMP JUMPDEST JUMPDEST PUSH1 0x0 PUSH2 0x2C2 DUP7 DUP3 DUP8 ADD PUSH2 0x25A JUMP JUMPDEST SWAP4 POP POP PUSH1 0x20 PUSH2 0x2D3 DUP7 DUP3 DUP8 ADD PUSH2 0x25A JUMP JUMPDEST SWAP3 POP POP PUSH1 0x40 PUSH2 0x2E4 DUP7 DUP3 DUP8 ADD PUSH2 0x286 JUMP JUMPDEST SWAP2 POP POP SWAP3 POP SWAP3 POP SWAP3 JUMP JUMPDEST PUSH1 0x0 DUP2 MLOAD SWAP1 POP SWAP2 SWAP1 POP JUMP JUMPDEST PUSH32 0x4E487B7100000000000000000000000000000000000000000000000000000000 PUSH1 0x0 MSTORE PUSH1 0x41 PUSH1 0x4 MSTORE PUSH1 0x24 PUSH1 0x0 REVERT JUMPDEST PUSH32 0x4E487B7100000000000000000000000000000000000000000000000000000000 PUSH1 0x0 MSTORE PUSH1 0x22 PUSH1 0x4 MSTORE PUSH1 0x24 PUSH1 0x0 REVERT JUMPDEST PUSH1 0x0 PUSH1 0x2 DUP3 DIV SWAP1 POP PUSH1 0x1 DUP3 AND DUP1 PUSH2 0x36F JUMPI PUSH1 0x7F DUP3 AND SWAP2 POP JUMPDEST PUSH1 0x20 DUP3 LT DUP2 SUB PUSH2 0x382 JUMPI PUSH2 0x381 PUSH2 0x328 JUMP JUMPDEST JUMPDEST POP SWAP2 SWAP1 POP JUMP JUMPDEST PUSH1 0x0 DUP2 SWAP1 POP DUP2 PUSH1 0x0 MSTORE PUSH1 0x20 PUSH1 0x0 KECCAK256 SWAP1 POP SWAP2 SWAP1 POP JUMP JUMPDEST PUSH1 0x0 PUSH1 0x20 PUSH1 0x1F DUP4 ADD DIV SWAP1 POP SWAP2 SWAP1 POP JUMP JUMPDEST PUSH1 0x0 DUP3 DUP3 SHL SWAP1 POP SWAP3 SWAP2 POP POP JUMP JUMPDEST PUSH1 0x0 PUSH1 0x8 DUP4 MUL PUSH2 0x3EA PUSH32 0xFFFFFFFFFFFFFFFFFFFFFFFFFFFFFFFFFFFFFFFFFFFFFFFFFFFFFFFFFFFFFFFF DUP3 PUSH2 0x3AD JUMP JUMPDEST PUSH2 0x3F4 DUP7 DUP4 PUSH2 0x3AD JUMP JUMPDEST SWAP6 POP DUP1 NOT DUP5 AND SWAP4 POP DUP1 DUP7 AND DUP5 OR SWAP3 POP POP POP SWAP4 SWAP3 POP POP POP JUMP JUMPDEST PUSH1 0x0 DUP2 SWAP1 POP SWAP2 SWAP1 POP JUMP JUMPDEST PUSH1 0x0 DUP2 SWAP1 POP SWAP2 SWAP1 POP JUMP JUMPDEST PUSH1 0x0 PUSH2 0x43B PUSH2 0x436 PUSH2 0x431 DUP5 PUSH2 0x40C JUMP JUMPDEST PUSH2 0x416 JUMP JUMPDEST PUSH2 0x40C JUMP JUMPDEST SWAP1 POP SWAP2 SWAP1 POP JUMP JUMPDEST PUSH1 0x0 DUP2 SWAP1 POP SWAP2 SWAP1 POP JUMP JUMPDEST PUSH2 0x455 DUP4 PUSH2 0x420 JUMP JUMPDEST PUSH2 0x469 PUSH2 0x461 DUP3 PUSH2 0x442 JUMP JUMPDEST DUP5 DUP5 SLOAD PUSH2 0x3BA JUMP JUMPDEST DUP3 SSTORE POP POP POP POP JUMP JUMPDEST PUSH1 0x0 SWAP1 JUMP JUMPDEST PUSH2 0x47E PUSH2 0x471 JUMP JUMPDEST PUSH2 0x489 DUP2 DUP5 DUP5 PUSH2 0x44C JUMP JUMPDEST POP POP POP JUMP JUMPDEST JUMPDEST DUP2 DUP2 LT ISZERO PUSH2 0x4AD JUMPI PUSH2 0x4A2 PUSH1 0x0 DUP3 PUSH2 0x476 JUMP JUMPDEST PUSH1 0x1 DUP2 ADD SWAP1 POP PUSH2 0x48F JUMP JUMPDEST POP POP JUMP JUMPDEST PUSH1 0x1F DUP3 GT ISZERO PUSH2 0x4F2 JUMPI PUSH2 0x4C3 DUP2 PUSH2 0x388 JUMP JUMPDEST PUSH2 0x4CC DUP5 PUSH2 0x39D JUMP JUMPDEST DUP2 ADD PUSH1 0x20 DUP6 LT ISZERO PUSH2 0x4DB JUMPI DUP2 SWAP1 POP JUMPDEST PUSH2 0x4EF PUSH2 0x4E7 DUP6 PUSH2 0x39D JUMP JUMPDEST DUP4 ADD DUP3 PUSH2 0x48E JUMP JUMPDEST POP POP JUMPDEST POP POP POP JUMP JUMPDEST PUSH1 0x0 DUP3 DUP3 SHR SWAP1 POP SWAP3 SWAP2 POP POP JUMP JUMPDEST PUSH1 0x0 PUSH2 0x515 PUSH1 0x0 NOT DUP5 PUSH1 0x8 MUL PUSH2 0x4F7 JUMP JUMPDEST NOT DUP1 DUP4 AND SWAP2 POP POP SWAP3 SWAP2 POP POP JUMP JUMPDEST PUSH1 0x0 PUSH2 0x52E DUP4 DUP4 PUSH2 0x504 JUMP JUMPDEST SWAP2 POP DUP3 PUSH1 0x2 MUL DUP3 OR SWAP1 POP SWAP3 SWAP2 POP POP JUMP JUMPDEST PUSH2 0x547 DUP3 PUSH2 0x2EE JUMP JUMPDEST PUSH8 0xFFFFFFFFFFFFFFFF DUP2 GT ISZERO PUSH2 0x560 JUMPI PUSH2 0x55F PUSH2 0x2F9 JUMP JUMPDEST JUMPDEST PUSH2 0x56A DUP3 SLOAD PUSH2 0x357 JUMP JUMPDEST PUSH2 0x575 DUP3 DUP3 DUP6 PUSH2 0x4B1 JUMP JUMPDEST PUSH1 0x0 PUSH1 0x20 SWAP1 POP PUSH1 0x1F DUP4 GT PUSH1 0x1 DUP2 EQ PUSH2 0x5A8 JUMPI PUSH1 0x0 DUP5 ISZERO PUSH2 0x596 JUMPI DUP3 DUP8 ADD MLOAD SWAP1 POP JUMPDEST PUSH2 0x5A0 DUP6 DUP3 PUSH2 0x522 JUMP JUMPDEST DUP7 SSTORE POP PUSH2 0x608 JUMP JUMPDEST PUSH1 0x1F NOT DUP5 AND PUSH2 0x5B6 DUP7 PUSH2 0x388 JUMP JUMPDEST PUSH1 0x0 JUMPDEST DUP3 DUP2 LT ISZERO PUSH2 0x5DE JUMPI DUP5 DUP10 ADD MLOAD DUP3 SSTORE PUSH1 0x1 DUP3 ADD SWAP2 POP PUSH1 0x20 DUP6 ADD SWAP5 POP PUSH1 0x20 DUP2 ADD SWAP1 POP PUSH2 0x5B9 JUMP JUMPDEST DUP7 DUP4 LT ISZERO PUSH2 0x5FB JUMPI DUP5 DUP10 ADD MLOAD PUSH2 0x5F7 PUSH1 0x1F DUP10 AND DUP3 PUSH2 0x504 JUMP JUMPDEST DUP4 SSTORE POP JUMPDEST PUSH1 0x1 PUSH1 0x2 DUP9 MUL ADD DUP9 SSTORE POP POP POP JUMPDEST POP POP POP POP POP POP JUMP JUMPDEST PUSH1 0x0 DUP3 DUP3 MSTORE PUSH1 0x20 DUP3 ADD SWAP1 POP SWAP3 SWAP2 POP POP JUMP JUMPDEST PUSH32 0x496E76616C696420666565207265636569766572000000000000000000000000 PUSH1 0x0 DUP3 ADD MSTORE POP JUMP JUMPDEST PUSH1 0x0 PUSH2 0x657 PUSH1 0x14 DUP4 PUSH2 0x610 JUMP JUMPDEST SWAP2 POP PUSH2 0x662 DUP3 PUSH2 0x621 JUMP JUMPDEST PUSH1 0x20 DUP3 ADD SWAP1 POP SWAP2 SWAP1 POP JUMP JUMPDEST PUSH1 0x0 PUSH1 0x20 DUP3 ADD SWAP1 POP DUP2 DUP2 SUB PUSH1 0x0 DUP4 ADD MSTORE PUSH2 0x686 DUP2 PUSH2 0x64A JUMP JUMPDEST SWAP1 POP SWAP2 SWAP1 POP JUMP JUMPDEST PUSH2 0x278B DUP1 PUSH2 0x69C PUSH1 0x0 CODECOPY PUSH1 0x0 RETURN INVALID PUSH1 0x80 PUSH1 0x40 MSTORE CALLVALUE DUP1 ISZERO PUSH2 0x10 JUMPI PUSH1 0x0 DUP1 REVERT JUMPDEST POP PUSH1 0x4 CALLDATASIZE LT PUSH2 0x116 JUMPI PUSH1 0x0 CALLDATALOAD PUSH1 0xE0 SHR DUP1 PUSH4 0x95D89B41 GT PUSH2 0xA2 JUMPI DUP1 PUSH4 0xB3F00674 GT PUSH2 0x71 JUMPI DUP1 PUSH4 0xB3F00674 EQ PUSH2 0x30E JUMPI DUP1 PUSH4 0xDC5FA6C5 EQ PUSH2 0x32C JUMPI DUP1 PUSH4 0xDD62ED3E EQ PUSH2 0x34A JUMPI DUP1 PUSH4 0xDF791E50 EQ PUSH2 0x37A JUMPI DUP1 PUSH4 0xEAF98D23 EQ PUSH2 0x3AA JUMPI PUSH2 0x116 JUMP JUMPDEST DUP1 PUSH4 0x95D89B41 EQ PUSH2 0x25F JUMPI DUP1 PUSH4 0x9C8F9F23 EQ PUSH2 0x27D JUMPI DUP1 PUSH4 0x9CD441DA EQ PUSH2 0x2AE JUMPI DUP1 PUSH4 0xA9059CBB EQ PUSH2 0x2DE JUMPI PUSH2 0x116 JUMP JUMPDEST DUP1 PUSH4 0x19E36F3B GT PUSH2 0xE9 JUMPI DUP1 PUSH4 0x19E36F3B EQ PUSH2 0x1A5 JUMPI DUP1 PUSH4 0x23B872DD EQ PUSH2 0x1C3 JUMPI DUP1 PUSH4 0x313CE567 EQ PUSH2 0x1F3 JUMPI DUP1 PUSH4 0x5F64B55B EQ PUSH2 0x211 JUMPI DUP1 PUSH4 0x70A08231 EQ PUSH2 0x22F JUMPI PUSH2 0x116 JUMP JUMPDEST DUP1 PUSH4 0x6FDDE03 EQ PUSH2 0x11B JUMPI DUP1 PUSH4 0x95EA7B3 EQ PUSH2 0x139 JUMPI DUP1 PUSH4 0xFC63D10 EQ PUSH2 0x169 JUMPI DUP1 PUSH4 0x18160DDD EQ PUSH2 0x187 JUMPI JUMPDEST PUSH1 0x0 DUP1 REVERT JUMPDEST PUSH2 0x123 PUSH2 0x3C8 JUMP JUMPDEST PUSH1 0x40 MLOAD PUSH2 0x130 SWAP2 SWAP1 PUSH2 0x1C20 JUMP JUMPDEST PUSH1 0x40 MLOAD DUP1 SWAP2 SUB SWAP1 RETURN JUMPDEST PUSH2 0x153 PUSH1 0x4 DUP1 CALLDATASIZE SUB DUP2 ADD SWAP1 PUSH2 0x14E SWAP2 SWAP1 PUSH2 0x1CDB JUMP JUMPDEST PUSH2 0x45A JUMP JUMPDEST PUSH1 0x40 MLOAD PUSH2 0x160 SWAP2 SWAP1 PUSH2 0x1D36 JUMP JUMPDEST PUSH1 0x40 MLOAD DUP1 SWAP2 SUB SWAP1 RETURN JUMPDEST PUSH2 0x171 PUSH2 0x47D JUMP JUMPDEST PUSH1 0x40 MLOAD PUSH2 0x17E SWAP2 SWAP1 PUSH2 0x1DB0 JUMP JUMPDEST PUSH1 0x40 MLOAD DUP1 SWAP2 SUB SWAP1 RETURN JUMPDEST PUSH2 0x18F PUSH2 0x4A3 JUMP JUMPDEST PUSH1 0x40 MLOAD PUSH2 0x19C SWAP2 SWAP1 PUSH2 0x1DDA JUMP JUMPDEST PUSH1 0x40 MLOAD DUP1 SWAP2 SUB SWAP1 RETURN JUMPDEST PUSH2 0x1AD PUSH2 0x4AD JUMP JUMPDEST PUSH1 0x40 MLOAD PUSH2 0x1BA SWAP2 SWAP1 PUSH2 0x1DDA JUMP JUMPDEST PUSH1 0x40 MLOAD DUP1 SWAP2 SUB SWAP1 RETURN JUMPDEST PUSH2 0x1DD PUSH1 0x4 DUP1 CALLDATASIZE SUB DUP2 ADD SWAP1 PUSH2 0x1D8 SWAP2 SWAP1 PUSH2 0x1DF5 JUMP JUMPDEST PUSH2 0x4B3 JUMP JUMPDEST PUSH1 0x40 MLOAD PUSH2 0x1EA SWAP2 SWAP1 PUSH2 0x1D36 JUMP JUMPDEST PUSH1 0x40 MLOAD DUP1 SWAP2 SUB SWAP1 RETURN JUMPDEST PUSH2 0x1FB PUSH2 0x4E2 JUMP JUMPDEST PUSH1 0x40 MLOAD PUSH2 0x208 SWAP2 SWAP1 PUSH2 0x1E64 JUMP JUMPDEST PUSH1 0x40 MLOAD DUP1 SWAP2 SUB SWAP1 RETURN JUMPDEST PUSH2 0x219 PUSH2 0x4EB JUMP JUMPDEST PUSH1 0x40 MLOAD PUSH2 0x226 SWAP2 SWAP1 PUSH2 0x1DB0 JUMP JUMPDEST PUSH1 0x40 MLOAD DUP1 SWAP2 SUB SWAP1 RETURN JUMPDEST PUSH2 0x249 PUSH1 0x4 DUP1 CALLDATASIZE SUB DUP2 ADD SWAP1 PUSH2 0x244 SWAP2 SWAP1 PUSH2 0x1E7F JUMP JUMPDEST PUSH2 0x511 JUMP JUMPDEST PUSH1 0x40 MLOAD PUSH2 0x256 SWAP2 SWAP1 PUSH2 0x1DDA JUMP JUMPDEST PUSH1 0x40 MLOAD DUP1 SWAP2 SUB SWAP1 RETURN JUMPDEST PUSH2 0x267 PUSH2 0x559 JUMP JUMPDEST PUSH1 0x40 MLOAD PUSH2 0x274 SWAP2 SWAP1 PUSH2 0x1C20 JUMP JUMPDEST PUSH1 0x40 MLOAD DUP1 SWAP2 SUB SWAP1 RETURN JUMPDEST PUSH2 0x297 PUSH1 0x4 DUP1 CALLDATASIZE SUB DUP2 ADD SWAP1 PUSH2 0x292 SWAP2 SWAP1 PUSH2 0x1EAC JUMP JUMPDEST PUSH2 0x5EB JUMP JUMPDEST PUSH1 0x40 MLOAD PUSH2 0x2A5 SWAP3 SWAP2 SWAP1 PUSH2 0x1ED9 JUMP JUMPDEST PUSH1 0x40 MLOAD DUP1 SWAP2 SUB SWAP1 RETURN JUMPDEST PUSH2 0x2C8 PUSH1 0x4 DUP1 CALLDATASIZE SUB DUP2 ADD SWAP1 PUSH2 0x2C3 SWAP2 SWAP1 PUSH2 0x1F02 JUMP JUMPDEST PUSH2 0x913 JUMP JUMPDEST PUSH1 0x40 MLOAD PUSH2 0x2D5 SWAP2 SWAP1 PUSH2 0x1DDA JUMP JUMPDEST PUSH1 0x40 MLOAD DUP1 SWAP2 SUB SWAP1 RETURN JUMPDEST PUSH2 0x2F8 PUSH1 0x4 DUP1 CALLDATASIZE SUB DUP2 ADD SWAP1 PUSH2 0x2F3 SWAP2 SWAP1 PUSH2 0x1CDB JUMP JUMPDEST PUSH2 0xC8F JUMP JUMPDEST PUSH1 0x40 MLOAD PUSH2 0x305 SWAP2 SWAP1 PUSH2 0x1D36 JUMP JUMPDEST PUSH1 0x40 MLOAD DUP1 SWAP2 SUB SWAP1 RETURN JUMPDEST PUSH2 0x316 PUSH2 0xCB2 JUMP JUMPDEST PUSH1 0x40 MLOAD PUSH2 0x323 SWAP2 SWAP1 PUSH2 0x1F51 JUMP JUMPDEST PUSH1 0x40 MLOAD DUP1 SWAP2 SUB SWAP1 RETURN JUMPDEST PUSH2 0x334 PUSH2 0xCD8 JUMP JUMPDEST PUSH1 0x40 MLOAD PUSH2 0x341 SWAP2 SWAP1 PUSH2 0x1DDA JUMP JUMPDEST PUSH1 0x40 MLOAD DUP1 SWAP2 SUB SWAP1 RETURN JUMPDEST PUSH2 0x364 PUSH1 0x4 DUP1 CALLDATASIZE SUB DUP2 ADD SWAP1 PUSH2 0x35F SWAP2 SWAP1 PUSH2 0x1F6C JUMP JUMPDEST PUSH2 0xCDE JUMP JUMPDEST PUSH1 0x40 MLOAD PUSH2 0x371 SWAP2 SWAP1 PUSH2 0x1DDA JUMP JUMPDEST PUSH1 0x40 MLOAD DUP1 SWAP2 SUB SWAP1 RETURN JUMPDEST PUSH2 0x394 PUSH1 0x4 DUP1 CALLDATASIZE SUB DUP2 ADD SWAP1 PUSH2 0x38F SWAP2 SWAP1 PUSH2 0x1DF5 JUMP JUMPDEST PUSH2 0xD65 JUMP JUMPDEST PUSH1 0x40 MLOAD PUSH2 0x3A1 SWAP2 SWAP1 PUSH2 0x1DDA JUMP JUMPDEST PUSH1 0x40 MLOAD DUP1 SWAP2 SUB SWAP1 RETURN JUMPDEST PUSH2 0x3B2 PUSH2 0x146F JUMP JUMPDEST PUSH1 0x40 MLOAD PUSH2 0x3BF SWAP2 SWAP1 PUSH2 0x1DDA JUMP JUMPDEST PUSH1 0x40 MLOAD DUP1 SWAP2 SUB SWAP1 RETURN JUMPDEST PUSH1 0x60 PUSH1 0x3 DUP1 SLOAD PUSH2 0x3D7 SWAP1 PUSH2 0x1FDB JUMP JUMPDEST DUP1 PUSH1 0x1F ADD PUSH1 0x20 DUP1 SWAP2 DIV MUL PUSH1 0x20 ADD PUSH1 0x40 MLOAD SWAP1 DUP2 ADD PUSH1 0x40 MSTORE DUP1 SWAP3 SWAP2 SWAP1 DUP2 DUP2 MSTORE PUSH1 0x20 ADD DUP3 DUP1 SLOAD PUSH2 0x403 SWAP1 PUSH2 0x1FDB JUMP JUMPDEST DUP1 ISZERO PUSH2 0x450 JUMPI DUP1 PUSH1 0x1F LT PUSH2 0x425 JUMPI PUSH2 0x100 DUP1 DUP4 SLOAD DIV MUL DUP4 MSTORE SWAP2 PUSH1 0x20 ADD SWAP2 PUSH2 0x450 JUMP JUMPDEST DUP3 ADD SWAP2 SWAP1 PUSH1 0x0 MSTORE PUSH1 0x20 PUSH1 0x0 KECCAK256 SWAP1 JUMPDEST DUP2 SLOAD DUP2 MSTORE SWAP1 PUSH1 0x1 ADD SWAP1 PUSH1 0x20 ADD DUP1 DUP4 GT PUSH2 0x433 JUMPI DUP3 SWAP1 SUB PUSH1 0x1F AND DUP3 ADD SWAP2 JUMPDEST POP POP POP POP POP SWAP1 POP SWAP1 JUMP JUMPDEST PUSH1 0x0 DUP1 PUSH2 0x465 PUSH2 0x1474 JUMP JUMPDEST SWAP1 POP PUSH2 0x472 DUP2 DUP6 DUP6 PUSH2 0x147C JUMP JUMPDEST PUSH1 0x1 SWAP2 POP POP SWAP3 SWAP2 POP POP JUMP JUMPDEST PUSH1 0x5 PUSH1 0x0 SWAP1 SLOAD SWAP1 PUSH2 0x100 EXP SWAP1 DIV PUSH20 0xFFFFFFFFFFFFFFFFFFFFFFFFFFFFFFFFFFFFFFFF AND DUP2 JUMP JUMPDEST PUSH1 0x0 PUSH1 0x2 SLOAD SWAP1 POP SWAP1 JUMP JUMPDEST PUSH1 0x8 SLOAD DUP2 JUMP JUMPDEST PUSH1 0x0 DUP1 PUSH2 0x4BE PUSH2 0x1474 JUMP JUMPDEST SWAP1 POP PUSH2 0x4CB DUP6 DUP3 DUP6 PUSH2 0x148E JUMP JUMPDEST PUSH2 0x4D6 DUP6 DUP6 DUP6 PUSH2 0x1522 JUMP JUMPDEST PUSH1 0x1 SWAP2 POP POP SWAP4 SWAP3 POP POP POP JUMP JUMPDEST PUSH1 0x0 PUSH1 0x12 SWAP1 POP SWAP1 JUMP JUMPDEST PUSH1 0x6 PUSH1 0x0 SWAP1 SLOAD SWAP1 PUSH2 0x100 EXP SWAP1 DIV PUSH20 0xFFFFFFFFFFFFFFFFFFFFFFFFFFFFFFFFFFFFFFFF AND DUP2 JUMP JUMPDEST PUSH1 0x0 DUP1 PUSH1 0x0 DUP4 PUSH20 0xFFFFFFFFFFFFFFFFFFFFFFFFFFFFFFFFFFFFFFFF AND PUSH20 0xFFFFFFFFFFFFFFFFFFFFFFFFFFFFFFFFFFFFFFFF AND DUP2 MSTORE PUSH1 0x20 ADD SWAP1 DUP2 MSTORE PUSH1 0x20 ADD PUSH1 0x0 KECCAK256 SLOAD SWAP1 POP SWAP2 SWAP1 POP JUMP JUMPDEST PUSH1 0x60 PUSH1 0x4 DUP1 SLOAD PUSH2 0x568 SWAP1 PUSH2 0x1FDB JUMP JUMPDEST DUP1 PUSH1 0x1F ADD PUSH1 0x20 DUP1 SWAP2 DIV MUL PUSH1 0x20 ADD PUSH1 0x40 MLOAD SWAP1 DUP2 ADD PUSH1 0x40 MSTORE DUP1 SWAP3 SWAP2 SWAP1 DUP2 DUP2 MSTORE PUSH1 0x20 ADD DUP3 DUP1 SLOAD PUSH2 0x594 SWAP1 PUSH2 0x1FDB JUMP JUMPDEST DUP1 ISZERO PUSH2 0x5E1 JUMPI DUP1 PUSH1 0x1F LT PUSH2 0x5B6 JUMPI PUSH2 0x100 DUP1 DUP4 SLOAD DIV MUL DUP4 MSTORE SWAP2 PUSH1 0x20 ADD SWAP2 PUSH2 0x5E1 JUMP JUMPDEST DUP3 ADD SWAP2 SWAP1 PUSH1 0x0 MSTORE PUSH1 0x20 PUSH1 0x0 KECCAK256 SWAP1 JUMPDEST DUP2 SLOAD DUP2 MSTORE SWAP1 PUSH1 0x1 ADD SWAP1 PUSH1 0x20 ADD DUP1 DUP4 GT PUSH2 0x5C4 JUMPI DUP3 SWAP1 SUB PUSH1 0x1F AND DUP3 ADD SWAP2 JUMPDEST POP POP POP POP POP SWAP1 POP SWAP1 JUMP JUMPDEST PUSH1 0x0 DUP1 PUSH1 0x9 PUSH1 0x14 SWAP1 SLOAD SWAP1 PUSH2 0x100 EXP SWAP1 DIV PUSH1 0xFF AND ISZERO PUSH2 0x63E JUMPI PUSH1 0x40 MLOAD PUSH32 0x8C379A000000000000000000000000000000000000000000000000000000000 DUP2 MSTORE PUSH1 0x4 ADD PUSH2 0x635 SWAP1 PUSH2 0x2058 JUMP JUMPDEST PUSH1 0x40 MLOAD DUP1 SWAP2 SUB SWAP1 REVERT JUMPDEST PUSH1 0x1 PUSH1 0x9 PUSH1 0x14 PUSH2 0x100 EXP DUP2 SLOAD DUP2 PUSH1 0xFF MUL NOT AND SWAP1 DUP4 ISZERO ISZERO MUL OR SWAP1 SSTORE POP PUSH1 0x0 DUP4 GT PUSH2 0x69C JUMPI PUSH1 0x40 MLOAD PUSH32 0x8C379A000000000000000000000000000000000000000000000000000000000 DUP2 MSTORE PUSH1 0x4 ADD PUSH2 0x693 SWAP1 PUSH2 0x20C4 JUMP JUMPDEST PUSH1 0x40 MLOAD DUP1 SWAP2 SUB SWAP1 REVERT JUMPDEST PUSH2 0x6A4 PUSH2 0x4A3 JUMP JUMPDEST PUSH1 0x7 SLOAD DUP5 PUSH2 0x6B2 SWAP2 SWAP1 PUSH2 0x2113 JUMP JUMPDEST PUSH2 0x6BC SWAP2 SWAP1 PUSH2 0x2184 JUMP JUMPDEST SWAP2 POP PUSH2 0x6C6 PUSH2 0x4A3 JUMP JUMPDEST PUSH1 0x8 SLOAD DUP5 PUSH2 0x6D4 SWAP2 SWAP1 PUSH2 0x2113 JUMP JUMPDEST PUSH2 0x6DE SWAP2 SWAP1 PUSH2 0x2184 JUMP JUMPDEST SWAP1 POP PUSH2 0x6EA CALLER DUP5 PUSH2 0x1616 JUMP JUMPDEST DUP2 PUSH1 0x7 PUSH1 0x0 DUP3 DUP3 SLOAD PUSH2 0x6FC SWAP2 SWAP1 PUSH2 0x21B5 JUMP JUMPDEST SWAP3 POP POP DUP2 SWAP1 SSTORE POP DUP1 PUSH1 0x8 PUSH1 0x0 DUP3 DUP3 SLOAD PUSH2 0x715 SWAP2 SWAP1 PUSH2 0x21B5 JUMP JUMPDEST SWAP3 POP POP DUP2 SWAP1 SSTORE POP PUSH1 0x5 PUSH1 0x0 SWAP1 SLOAD SWAP1 PUSH2 0x100 EXP SWAP1 DIV PUSH20 0xFFFFFFFFFFFFFFFFFFFFFFFFFFFFFFFFFFFFFFFF AND PUSH20 0xFFFFFFFFFFFFFFFFFFFFFFFFFFFFFFFFFFFFFFFF AND PUSH4 0xA9059CBB CALLER DUP5 PUSH1 0x40 MLOAD DUP4 PUSH4 0xFFFFFFFF AND PUSH1 0xE0 SHL DUP2 MSTORE PUSH1 0x4 ADD PUSH2 0x779 SWAP3 SWAP2 SWAP1 PUSH2 0x21E9 JUMP JUMPDEST PUSH1 0x20 PUSH1 0x40 MLOAD DUP1 DUP4 SUB DUP2 PUSH1 0x0 DUP8 GAS CALL ISZERO DUP1 ISZERO PUSH2 0x798 JUMPI RETURNDATASIZE PUSH1 0x0 DUP1 RETURNDATACOPY RETURNDATASIZE PUSH1 0x0 REVERT JUMPDEST POP POP POP POP PUSH1 0x40 MLOAD RETURNDATASIZE PUSH1 0x1F NOT PUSH1 0x1F DUP3 ADD AND DUP3 ADD DUP1 PUSH1 0x40 MSTORE POP DUP2 ADD SWAP1 PUSH2 0x7BC SWAP2 SWAP1 PUSH2 0x223E JUMP JUMPDEST DUP1 ISZERO PUSH2 0x864 JUMPI POP PUSH1 0x6 PUSH1 0x0 SWAP1 SLOAD SWAP1 PUSH2 0x100 EXP SWAP1 DIV PUSH20 0xFFFFFFFFFFFFFFFFFFFFFFFFFFFFFFFFFFFFFFFF AND PUSH20 0xFFFFFFFFFFFFFFFFFFFFFFFFFFFFFFFFFFFFFFFF AND PUSH4 0xA9059CBB CALLER DUP4 PUSH1 0x40 MLOAD DUP4 PUSH4 0xFFFFFFFF AND PUSH1 0xE0 SHL DUP2 MSTORE PUSH1 0x4 ADD PUSH2 0x820 SWAP3 SWAP2 SWAP1 PUSH2 0x21E9 JUMP JUMPDEST PUSH1 0x20 PUSH1 0x40 MLOAD DUP1 DUP4 SUB DUP2 PUSH1 0x0 DUP8 GAS CALL ISZERO DUP1 ISZERO PUSH2 0x83F JUMPI RETURNDATASIZE PUSH1 0x0 DUP1 RETURNDATACOPY RETURNDATASIZE PUSH1 0x0 REVERT JUMPDEST POP POP POP POP PUSH1 0x40 MLOAD RETURNDATASIZE PUSH1 0x1F NOT PUSH1 0x1F DUP3 ADD AND DUP3 ADD DUP1 PUSH1 0x40 MSTORE POP DUP2 ADD SWAP1 PUSH2 0x863 SWAP2 SWAP1 PUSH2 0x223E JUMP JUMPDEST JUMPDEST PUSH2 0x8A3 JUMPI PUSH1 0x40 MLOAD PUSH32 0x8C379A000000000000000000000000000000000000000000000000000000000 DUP2 MSTORE PUSH1 0x4 ADD PUSH2 0x89A SWAP1 PUSH2 0x22B7 JUMP JUMPDEST PUSH1 0x40 MLOAD DUP1 SWAP2 SUB SWAP1 REVERT JUMPDEST CALLER PUSH20 0xFFFFFFFFFFFFFFFFFFFFFFFFFFFFFFFFFFFFFFFF AND PUSH32 0x96CD817C6329656790EF8FBA7675405193677D39619571282F5E21F3A98CD059 DUP4 DUP4 PUSH1 0x40 MLOAD PUSH2 0x8EB SWAP3 SWAP2 SWAP1 PUSH2 0x1ED9 JUMP JUMPDEST PUSH1 0x40 MLOAD DUP1 SWAP2 SUB SWAP1 LOG2 PUSH1 0x0 PUSH1 0x9 PUSH1 0x14 PUSH2 0x100 EXP DUP2 SLOAD DUP2 PUSH1 0xFF MUL NOT AND SWAP1 DUP4 ISZERO ISZERO MUL OR SWAP1 SSTORE POP SWAP2 POP SWAP2 JUMP JUMPDEST PUSH1 0x0 PUSH1 0x9 PUSH1 0x14 SWAP1 SLOAD SWAP1 PUSH2 0x100 EXP SWAP1 DIV PUSH1 0xFF AND ISZERO PUSH2 0x965 JUMPI PUSH1 0x40 MLOAD PUSH32 0x8C379A000000000000000000000000000000000000000000000000000000000 DUP2 MSTORE PUSH1 0x4 ADD PUSH2 0x95C SWAP1 PUSH2 0x2058 JUMP JUMPDEST PUSH1 0x40 MLOAD DUP1 SWAP2 SUB SWAP1 REVERT JUMPDEST PUSH1 0x1 PUSH1 0x9 PUSH1 0x14 PUSH2 0x100 EXP DUP2 SLOAD DUP2 PUSH1 0xFF MUL NOT AND SWAP1 DUP4 ISZERO ISZERO MUL OR SWAP1 SSTORE POP PUSH1 0x0 DUP4 GT DUP1 ISZERO PUSH2 0x990 JUMPI POP PUSH1 0x0 DUP3 GT JUMPDEST PUSH2 0x9CF JUMPI PUSH1 0x40 MLOAD PUSH32 0x8C379A000000000000000000000000000000000000000000000000000000000 DUP2 MSTORE PUSH1 0x4 ADD PUSH2 0x9C6 SWAP1 PUSH2 0x2323 JUMP JUMPDEST PUSH1 0x40 MLOAD DUP1 SWAP2 SUB SWAP1 REVERT JUMPDEST PUSH1 0x5 PUSH1 0x0 SWAP1 SLOAD SWAP1 PUSH2 0x100 EXP SWAP1 DIV PUSH20 0xFFFFFFFFFFFFFFFFFFFFFFFFFFFFFFFFFFFFFFFF AND PUSH20 0xFFFFFFFFFFFFFFFFFFFFFFFFFFFFFFFFFFFFFFFF AND PUSH4 0x23B872DD CALLER ADDRESS DUP7 PUSH1 0x40 MLOAD DUP5 PUSH4 0xFFFFFFFF AND PUSH1 0xE0 SHL DUP2 MSTORE PUSH1 0x4 ADD PUSH2 0xA2E SWAP4 SWAP3 SWAP2 SWAP1 PUSH2 0x2343 JUMP JUMPDEST PUSH1 0x20 PUSH1 0x40 MLOAD DUP1 DUP4 SUB DUP2 PUSH1 0x0 DUP8 GAS CALL ISZERO DUP1 ISZERO PUSH2 0xA4D JUMPI RETURNDATASIZE PUSH1 0x0 DUP1 RETURNDATACOPY RETURNDATASIZE PUSH1 0x0 REVERT JUMPDEST POP POP POP POP PUSH1 0x40 MLOAD RETURNDATASIZE PUSH1 0x1F NOT PUSH1 0x1F DUP3 ADD AND DUP3 ADD DUP1 PUSH1 0x40 MSTORE POP DUP2 ADD SWAP1 PUSH2 0xA71 SWAP2 SWAP1 PUSH2 0x223E JUMP JUMPDEST DUP1 ISZERO PUSH2 0xB1B JUMPI POP PUSH1 0x6 PUSH1 0x0 SWAP1 SLOAD SWAP1 PUSH2 0x100 EXP SWAP1 DIV PUSH20 0xFFFFFFFFFFFFFFFFFFFFFFFFFFFFFFFFFFFFFFFF AND PUSH20 0xFFFFFFFFFFFFFFFFFFFFFFFFFFFFFFFFFFFFFFFF AND PUSH4 0x23B872DD CALLER ADDRESS DUP6 PUSH1 0x40 MLOAD DUP5 PUSH4 0xFFFFFFFF AND PUSH1 0xE0 SHL DUP2 MSTORE PUSH1 0x4 ADD PUSH2 0xAD7 SWAP4 SWAP3 SWAP2 SWAP1 PUSH2 0x2343 JUMP JUMPDEST PUSH1 0x20 PUSH1 0x40 MLOAD DUP1 DUP4 SUB DUP2 PUSH1 0x0 DUP8 GAS CALL ISZERO DUP1 ISZERO PUSH2 0xAF6 JUMPI RETURNDATASIZE PUSH1 0x0 DUP1 RETURNDATACOPY RETURNDATASIZE PUSH1 0x0 REVERT JUMPDEST POP POP POP POP PUSH1 0x40 MLOAD RETURNDATASIZE PUSH1 0x1F NOT PUSH1 0x1F DUP3 ADD AND DUP3 ADD DUP1 PUSH1 0x40 MSTORE POP DUP2 ADD SWAP1 PUSH2 0xB1A SWAP2 SWAP1 PUSH2 0x223E JUMP JUMPDEST JUMPDEST PUSH2 0xB5A JUMPI PUSH1 0x40 MLOAD PUSH32 0x8C379A000000000000000000000000000000000000000000000000000000000 DUP2 MSTORE PUSH1 0x4 ADD PUSH2 0xB51 SWAP1 PUSH2 0x22B7 JUMP JUMPDEST PUSH1 0x40 MLOAD DUP1 SWAP2 SUB SWAP1 REVERT JUMPDEST PUSH1 0x0 PUSH2 0xB64 PUSH2 0x4A3 JUMP JUMPDEST SUB PUSH2 0xB84 JUMPI PUSH2 0xB7D DUP3 DUP5 PUSH2 0xB78 SWAP2 SWAP1 PUSH2 0x2113 JUMP JUMPDEST PUSH2 0x1698 JUMP JUMPDEST SWAP1 POP PUSH2 0xBE0 JUMP JUMPDEST PUSH1 0x0 PUSH1 0x7 SLOAD PUSH2 0xB91 PUSH2 0x4A3 JUMP JUMPDEST DUP6 PUSH2 0xB9C SWAP2 SWAP1 PUSH2 0x2113 JUMP JUMPDEST PUSH2 0xBA6 SWAP2 SWAP1 PUSH2 0x2184 JUMP JUMPDEST SWAP1 POP PUSH1 0x0 PUSH1 0x8 SLOAD PUSH2 0xBB5 PUSH2 0x4A3 JUMP JUMPDEST DUP6 PUSH2 0xBC0 SWAP2 SWAP1 PUSH2 0x2113 JUMP JUMPDEST PUSH2 0xBCA SWAP2 SWAP1 PUSH2 0x2184 JUMP JUMPDEST SWAP1 POP DUP1 DUP3 LT PUSH2 0xBD9 JUMPI DUP1 PUSH2 0xBDB JUMP JUMPDEST DUP2 JUMPDEST SWAP3 POP POP POP JUMPDEST DUP3 PUSH1 0x7 PUSH1 0x0 DUP3 DUP3 SLOAD PUSH2 0xBF2 SWAP2 SWAP1 PUSH2 0x237A JUMP JUMPDEST SWAP3 POP POP DUP2 SWAP1 SSTORE POP DUP2 PUSH1 0x8 PUSH1 0x0 DUP3 DUP3 SLOAD PUSH2 0xC0B SWAP2 SWAP1 PUSH2 0x237A JUMP JUMPDEST SWAP3 POP POP DUP2 SWAP1 SSTORE POP PUSH2 0xC1C CALLER DUP3 PUSH2 0x1712 JUMP JUMPDEST CALLER PUSH20 0xFFFFFFFFFFFFFFFFFFFFFFFFFFFFFFFFFFFFFFFF AND PUSH32 0x64B83944E79C3CE8D4C297411DE637C3E102D064677AAC0C163976EBDCD6F50E DUP5 DUP5 DUP5 PUSH1 0x40 MLOAD PUSH2 0xC66 SWAP4 SWAP3 SWAP2 SWAP1 PUSH2 0x23AE JUMP JUMPDEST PUSH1 0x40 MLOAD DUP1 SWAP2 SUB SWAP1 LOG2 PUSH1 0x0 PUSH1 0x9 PUSH1 0x14 PUSH2 0x100 EXP DUP2 SLOAD DUP2 PUSH1 0xFF MUL NOT AND SWAP1 DUP4 ISZERO ISZERO MUL OR SWAP1 SSTORE POP SWAP3 SWAP2 POP POP JUMP JUMPDEST PUSH1 0x0 DUP1 PUSH2 0xC9A PUSH2 0x1474 JUMP JUMPDEST SWAP1 POP PUSH2 0xCA7 DUP2 DUP6 DUP6 PUSH2 0x1522 JUMP JUMPDEST PUSH1 0x1 SWAP2 POP POP SWAP3 SWAP2 POP POP JUMP JUMPDEST PUSH1 0x9 PUSH1 0x0 SWAP1 SLOAD SWAP1 PUSH2 0x100 EXP SWAP1 DIV PUSH20 0xFFFFFFFFFFFFFFFFFFFFFFFFFFFFFFFFFFFFFFFF AND DUP2 JUMP JUMPDEST PUSH1 0x7 SLOAD DUP2 JUMP JUMPDEST PUSH1 0x0 PUSH1 0x1 PUSH1 0x0 DUP5 PUSH20 0xFFFFFFFFFFFFFFFFFFFFFFFFFFFFFFFFFFFFFFFF AND PUSH20 0xFFFFFFFFFFFFFFFFFFFFFFFFFFFFFFFFFFFFFFFF AND DUP2 MSTORE PUSH1 0x20 ADD SWAP1 DUP2 MSTORE PUSH1 0x20 ADD PUSH1 0x0 KECCAK256 PUSH1 0x0 DUP4 PUSH20 0xFFFFFFFFFFFFFFFFFFFFFFFFFFFFFFFFFFFFFFFF AND PUSH20 0xFFFFFFFFFFFFFFFFFFFFFFFFFFFFFFFFFFFFFFFF AND DUP2 MSTORE PUSH1 0x20 ADD SWAP1 DUP2 MSTORE PUSH1 0x20 ADD PUSH1 0x0 KECCAK256 SLOAD SWAP1 POP SWAP3 SWAP2 POP POP JUMP JUMPDEST PUSH1 0x0 PUSH1 0x9 PUSH1 0x14 SWAP1 SLOAD SWAP1 PUSH2 0x100 EXP SWAP1 DIV PUSH1 0xFF AND ISZERO PUSH2 0xDB7 JUMPI PUSH1 0x40 MLOAD PUSH32 0x8C379A000000000000000000000000000000000000000000000000000000000 DUP2 MSTORE PUSH1 0x4 ADD PUSH2 0xDAE SWAP1 PUSH2 0x2058 JUMP JUMPDEST PUSH1 0x40 MLOAD DUP1 SWAP2 SUB SWAP1 REVERT JUMPDEST PUSH1 0x1 PUSH1 0x9 PUSH1 0x14 PUSH2 0x100 EXP DUP2 SLOAD DUP2 PUSH1 0xFF MUL NOT AND SWAP1 DUP4 ISZERO ISZERO MUL OR SWAP1 SSTORE POP PUSH1 0x5 PUSH1 0x0 SWAP1 SLOAD SWAP1 PUSH2 0x100 EXP SWAP1 DIV PUSH20 0xFFFFFFFFFFFFFFFFFFFFFFFFFFFFFFFFFFFFFFFF AND PUSH20 0xFFFFFFFFFFFFFFFFFFFFFFFFFFFFFFFFFFFFFFFF AND DUP5 PUSH20 0xFFFFFFFFFFFFFFFFFFFFFFFFFFFFFFFFFFFFFFFF AND EQ DUP1 PUSH2 0xE7B JUMPI POP PUSH1 0x6 PUSH1 0x0 SWAP1 SLOAD SWAP1 PUSH2 0x100 EXP SWAP1 DIV PUSH20 0xFFFFFFFFFFFFFFFFFFFFFFFFFFFFFFFFFFFFFFFF AND PUSH20 0xFFFFFFFFFFFFFFFFFFFFFFFFFFFFFFFFFFFFFFFF AND DUP5 PUSH20 0xFFFFFFFFFFFFFFFFFFFFFFFFFFFFFFFFFFFFFFFF AND EQ JUMPDEST PUSH2 0xEBA JUMPI PUSH1 0x40 MLOAD PUSH32 0x8C379A000000000000000000000000000000000000000000000000000000000 DUP2 MSTORE PUSH1 0x4 ADD PUSH2 0xEB1 SWAP1 PUSH2 0x2431 JUMP JUMPDEST PUSH1 0x40 MLOAD DUP1 SWAP2 SUB SWAP1 REVERT JUMPDEST PUSH1 0x5 PUSH1 0x0 SWAP1 SLOAD SWAP1 PUSH2 0x100 EXP SWAP1 DIV PUSH20 0xFFFFFFFFFFFFFFFFFFFFFFFFFFFFFFFFFFFFFFFF AND PUSH20 0xFFFFFFFFFFFFFFFFFFFFFFFFFFFFFFFFFFFFFFFF AND DUP4 PUSH20 0xFFFFFFFFFFFFFFFFFFFFFFFFFFFFFFFFFFFFFFFF AND EQ DUP1 PUSH2 0xF63 JUMPI POP PUSH1 0x6 PUSH1 0x0 SWAP1 SLOAD SWAP1 PUSH2 0x100 EXP SWAP1 DIV PUSH20 0xFFFFFFFFFFFFFFFFFFFFFFFFFFFFFFFFFFFFFFFF AND PUSH20 0xFFFFFFFFFFFFFFFFFFFFFFFFFFFFFFFFFFFFFFFF AND DUP4 PUSH20 0xFFFFFFFFFFFFFFFFFFFFFFFFFFFFFFFFFFFFFFFF AND EQ JUMPDEST PUSH2 0xFA2 JUMPI PUSH1 0x40 MLOAD PUSH32 0x8C379A000000000000000000000000000000000000000000000000000000000 DUP2 MSTORE PUSH1 0x4 ADD PUSH2 0xF99 SWAP1 PUSH2 0x249D JUMP JUMPDEST PUSH1 0x40 MLOAD DUP1 SWAP2 SUB SWAP1 REVERT JUMPDEST DUP3 PUSH20 0xFFFFFFFFFFFFFFFFFFFFFFFFFFFFFFFFFFFFFFFF AND DUP5 PUSH20 0xFFFFFFFFFFFFFFFFFFFFFFFFFFFFFFFFFFFFFFFF AND SUB PUSH2 0x1010 JUMPI PUSH1 0x40 MLOAD PUSH32 0x8C379A000000000000000000000000000000000000000000000000000000000 DUP2 MSTORE PUSH1 0x4 ADD PUSH2 0x1007 SWAP1 PUSH2 0x2509 JUMP JUMPDEST PUSH1 0x40 MLOAD DUP1 SWAP2 SUB SWAP1 REVERT JUMPDEST PUSH1 0x0 DUP3 GT PUSH2 0x1053 JUMPI PUSH1 0x40 MLOAD PUSH32 0x8C379A000000000000000000000000000000000000000000000000000000000 DUP2 MSTORE PUSH1 0x4 ADD PUSH2 0x104A SWAP1 PUSH2 0x2575 JUMP JUMPDEST PUSH1 0x40 MLOAD DUP1 SWAP2 SUB SWAP1 REVERT JUMPDEST PUSH1 0x0 DUP5 SWAP1 POP PUSH1 0x0 DUP5 SWAP1 POP PUSH1 0x0 PUSH2 0x3E8 PUSH1 0x5 DUP7 PUSH2 0x106F SWAP2 SWAP1 PUSH2 0x2113 JUMP JUMPDEST PUSH2 0x1079 SWAP2 SWAP1 PUSH2 0x2184 JUMP JUMPDEST SWAP1 POP PUSH1 0x0 DUP2 DUP7 PUSH2 0x1089 SWAP2 SWAP1 PUSH2 0x21B5 JUMP JUMPDEST SWAP1 POP DUP4 PUSH20 0xFFFFFFFFFFFFFFFFFFFFFFFFFFFFFFFFFFFFFFFF AND PUSH4 0x23B872DD CALLER ADDRESS DUP10 PUSH1 0x40 MLOAD DUP5 PUSH4 0xFFFFFFFF AND PUSH1 0xE0 SHL DUP2 MSTORE PUSH1 0x4 ADD PUSH2 0x10C8 SWAP4 SWAP3 SWAP2 SWAP1 PUSH2 0x2343 JUMP JUMPDEST PUSH1 0x20 PUSH1 0x40 MLOAD DUP1 DUP4 SUB DUP2 PUSH1 0x0 DUP8 GAS CALL ISZERO DUP1 ISZERO PUSH2 0x10E7 JUMPI RETURNDATASIZE PUSH1 0x0 DUP1 RETURNDATACOPY RETURNDATASIZE PUSH1 0x0 REVERT JUMPDEST POP POP POP POP PUSH1 0x40 MLOAD RETURNDATASIZE PUSH1 0x1F NOT PUSH1 0x1F DUP3 ADD AND DUP3 ADD DUP1 PUSH1 0x40 MSTORE POP DUP2 ADD SWAP1 PUSH2 0x110B SWAP2 SWAP1 PUSH2 0x223E JUMP JUMPDEST PUSH2 0x114A JUMPI PUSH1 0x40 MLOAD PUSH32 0x8C379A000000000000000000000000000000000000000000000000000000000 DUP2 MSTORE PUSH1 0x4 ADD PUSH2 0x1141 SWAP1 PUSH2 0x25E1 JUMP JUMPDEST PUSH1 0x40 MLOAD DUP1 SWAP2 SUB SWAP1 REVERT JUMPDEST DUP4 PUSH20 0xFFFFFFFFFFFFFFFFFFFFFFFFFFFFFFFFFFFFFFFF AND PUSH4 0xA9059CBB PUSH1 0x9 PUSH1 0x0 SWAP1 SLOAD SWAP1 PUSH2 0x100 EXP SWAP1 DIV PUSH20 0xFFFFFFFFFFFFFFFFFFFFFFFFFFFFFFFFFFFFFFFF AND DUP5 PUSH1 0x40 MLOAD DUP4 PUSH4 0xFFFFFFFF AND PUSH1 0xE0 SHL DUP2 MSTORE PUSH1 0x4 ADD PUSH2 0x11A7 SWAP3 SWAP2 SWAP1 PUSH2 0x21E9 JUMP JUMPDEST PUSH1 0x20 PUSH1 0x40 MLOAD DUP1 DUP4 SUB DUP2 PUSH1 0x0 DUP8 GAS CALL ISZERO DUP1 ISZERO PUSH2 0x11C6 JUMPI RETURNDATASIZE PUSH1 0x0 DUP1 RETURNDATACOPY RETURNDATASIZE PUSH1 0x0 REVERT JUMPDEST POP POP POP POP PUSH1 0x40 MLOAD RETURNDATASIZE PUSH1 0x1F NOT PUSH1 0x1F DUP3 ADD AND DUP3 ADD DUP1 PUSH1 0x40 MSTORE POP DUP2 ADD SWAP1 PUSH2 0x11EA SWAP2 SWAP1 PUSH2 0x223E JUMP JUMPDEST PUSH2 0x1229 JUMPI PUSH1 0x40 MLOAD PUSH32 0x8C379A000000000000000000000000000000000000000000000000000000000 DUP2 MSTORE PUSH1 0x4 ADD PUSH2 0x1220 SWAP1 PUSH2 0x264D JUMP JUMPDEST PUSH1 0x40 MLOAD DUP1 SWAP2 SUB SWAP1 REVERT JUMPDEST PUSH1 0x5 PUSH1 0x0 SWAP1 SLOAD SWAP1 PUSH2 0x100 EXP SWAP1 DIV PUSH20 0xFFFFFFFFFFFFFFFFFFFFFFFFFFFFFFFFFFFFFFFF AND PUSH20 0xFFFFFFFFFFFFFFFFFFFFFFFFFFFFFFFFFFFFFFFF AND DUP9 PUSH20 0xFFFFFFFFFFFFFFFFFFFFFFFFFFFFFFFFFFFFFFFF AND SUB PUSH2 0x12DD JUMPI DUP1 PUSH1 0x7 SLOAD PUSH2 0x128C SWAP2 SWAP1 PUSH2 0x237A JUMP JUMPDEST DUP2 PUSH1 0x8 SLOAD PUSH2 0x129A SWAP2 SWAP1 PUSH2 0x2113 JUMP JUMPDEST PUSH2 0x12A4 SWAP2 SWAP1 PUSH2 0x2184 JUMP JUMPDEST SWAP5 POP DUP1 PUSH1 0x7 PUSH1 0x0 DUP3 DUP3 SLOAD PUSH2 0x12B8 SWAP2 SWAP1 PUSH2 0x237A JUMP JUMPDEST SWAP3 POP POP DUP2 SWAP1 SSTORE POP DUP5 PUSH1 0x8 PUSH1 0x0 DUP3 DUP3 SLOAD PUSH2 0x12D1 SWAP2 SWAP1 PUSH2 0x21B5 JUMP JUMPDEST SWAP3 POP POP DUP2 SWAP1 SSTORE POP PUSH2 0x1338 JUMP JUMPDEST DUP1 PUSH1 0x8 SLOAD PUSH2 0x12EB SWAP2 SWAP1 PUSH2 0x237A JUMP JUMPDEST DUP2 PUSH1 0x7 SLOAD PUSH2 0x12F9 SWAP2 SWAP1 PUSH2 0x2113 JUMP JUMPDEST PUSH2 0x1303 SWAP2 SWAP1 PUSH2 0x2184 JUMP JUMPDEST SWAP5 POP DUP1 PUSH1 0x8 PUSH1 0x0 DUP3 DUP3 SLOAD PUSH2 0x1317 SWAP2 SWAP1 PUSH2 0x237A JUMP JUMPDEST SWAP3 POP POP DUP2 SWAP1 SSTORE POP DUP5 PUSH1 0x7 PUSH1 0x0 DUP3 DUP3 SLOAD PUSH2 0x1330 SWAP2 SWAP1 PUSH2 0x21B5 JUMP JUMPDEST SWAP3 POP POP DUP2 SWAP1 SSTORE POP JUMPDEST DUP3 PUSH20 0xFFFFFFFFFFFFFFFFFFFFFFFFFFFFFFFFFFFFFFFF AND PUSH4 0xA9059CBB CALLER DUP8 PUSH1 0x40 MLOAD DUP4 PUSH4 0xFFFFFFFF AND PUSH1 0xE0 SHL DUP2 MSTORE PUSH1 0x4 ADD PUSH2 0x1373 SWAP3 SWAP2 SWAP1 PUSH2 0x21E9 JUMP JUMPDEST PUSH1 0x20 PUSH1 0x40 MLOAD DUP1 DUP4 SUB DUP2 PUSH1 0x0 DUP8 GAS CALL ISZERO DUP1 ISZERO PUSH2 0x1392 JUMPI RETURNDATASIZE PUSH1 0x0 DUP1 RETURNDATACOPY RETURNDATASIZE PUSH1 0x0 REVERT JUMPDEST POP POP POP POP PUSH1 0x40 MLOAD RETURNDATASIZE PUSH1 0x1F NOT PUSH1 0x1F DUP3 ADD AND DUP3 ADD DUP1 PUSH1 0x40 MSTORE POP DUP2 ADD SWAP1 PUSH2 0x13B6 SWAP2 SWAP1 PUSH2 0x223E JUMP JUMPDEST PUSH2 0x13F5 JUMPI PUSH1 0x40 MLOAD PUSH32 0x8C379A000000000000000000000000000000000000000000000000000000000 DUP2 MSTORE PUSH1 0x4 ADD PUSH2 0x13EC SWAP1 PUSH2 0x26B9 JUMP JUMPDEST PUSH1 0x40 MLOAD DUP1 SWAP2 SUB SWAP1 REVERT JUMPDEST CALLER PUSH20 0xFFFFFFFFFFFFFFFFFFFFFFFFFFFFFFFFFFFFFFFF AND PUSH32 0x6782190C91D4A7E8AD2A867DEED6EC0A970CAB8FF137AE2BD4ABD92B3810F4D3 DUP10 DUP10 DUP10 DUP10 PUSH1 0x40 MLOAD PUSH2 0x1441 SWAP5 SWAP4 SWAP3 SWAP2 SWAP1 PUSH2 0x26D9 JUMP JUMPDEST PUSH1 0x40 MLOAD DUP1 SWAP2 SUB SWAP1 LOG2 POP POP POP POP PUSH1 0x0 PUSH1 0x9 PUSH1 0x14 PUSH2 0x100 EXP DUP2 SLOAD DUP2 PUSH1 0xFF MUL NOT AND SWAP1 DUP4 ISZERO ISZERO MUL OR SWAP1 SSTORE POP SWAP4 SWAP3 POP POP POP JUMP JUMPDEST PUSH1 0x5 DUP2 JUMP JUMPDEST PUSH1 0x0 CALLER SWAP1 POP SWAP1 JUMP JUMPDEST PUSH2 0x1489 DUP4 DUP4 DUP4 PUSH1 0x1 PUSH2 0x1794 JUMP JUMPDEST POP POP POP JUMP JUMPDEST PUSH1 0x0 PUSH2 0x149A DUP5 DUP5 PUSH2 0xCDE JUMP JUMPDEST SWAP1 POP PUSH32 0xFFFFFFFFFFFFFFFFFFFFFFFFFFFFFFFFFFFFFFFFFFFFFFFFFFFFFFFFFFFFFFFF DUP2 EQ PUSH2 0x151C JUMPI DUP2 DUP2 LT ISZERO PUSH2 0x150C JUMPI DUP3 DUP2 DUP4 PUSH1 0x40 MLOAD PUSH32 0xFB8F41B200000000000000000000000000000000000000000000000000000000 DUP2 MSTORE PUSH1 0x4 ADD PUSH2 0x1503 SWAP4 SWAP3 SWAP2 SWAP1 PUSH2 0x271E JUMP JUMPDEST PUSH1 0x40 MLOAD DUP1 SWAP2 SUB SWAP1 REVERT JUMPDEST PUSH2 0x151B DUP5 DUP5 DUP5 DUP5 SUB PUSH1 0x0 PUSH2 0x1794 JUMP JUMPDEST JUMPDEST POP POP POP POP JUMP JUMPDEST PUSH1 0x0 PUSH20 0xFFFFFFFFFFFFFFFFFFFFFFFFFFFFFFFFFFFFFFFF AND DUP4 PUSH20 0xFFFFFFFFFFFFFFFFFFFFFFFFFFFFFFFFFFFFFFFF AND SUB PUSH2 0x1594 JUMPI PUSH1 0x0 PUSH1 0x40 MLOAD PUSH32 0x96C6FD1E00000000000000000000000000000000000000000000000000000000 DUP2 MSTORE PUSH1 0x4 ADD PUSH2 0x158B SWAP2 SWAP1 PUSH2 0x1F51 JUMP JUMPDEST PUSH1 0x40 MLOAD DUP1 SWAP2 SUB SWAP1 REVERT JUMPDEST PUSH1 0x0 PUSH20 0xFFFFFFFFFFFFFFFFFFFFFFFFFFFFFFFFFFFFFFFF AND DUP3 PUSH20 0xFFFFFFFFFFFFFFFFFFFFFFFFFFFFFFFFFFFFFFFF AND SUB PUSH2 0x1606 JUMPI PUSH1 0x0 PUSH1 0x40 MLOAD PUSH32 0xEC442F0500000000000000000000000000000000000000000000000000000000 DUP2 MSTORE PUSH1 0x4 ADD PUSH2 0x15FD SWAP2 SWAP1 PUSH2 0x1F51 JUMP JUMPDEST PUSH1 0x40 MLOAD DUP1 SWAP2 SUB SWAP1 REVERT JUMPDEST PUSH2 0x1611 DUP4 DUP4 DUP4 PUSH2 0x196B JUMP JUMPDEST POP POP POP JUMP JUMPDEST PUSH1 0x0 PUSH20 0xFFFFFFFFFFFFFFFFFFFFFFFFFFFFFFFFFFFFFFFF AND DUP3 PUSH20 0xFFFFFFFFFFFFFFFFFFFFFFFFFFFFFFFFFFFFFFFF AND SUB PUSH2 0x1688 JUMPI PUSH1 0x0 PUSH1 0x40 MLOAD PUSH32 0x96C6FD1E00000000000000000000000000000000000000000000000000000000 DUP2 MSTORE PUSH1 0x4 ADD PUSH2 0x167F SWAP2 SWAP1 PUSH2 0x1F51 JUMP JUMPDEST PUSH1 0x40 MLOAD DUP1 SWAP2 SUB SWAP1 REVERT JUMPDEST PUSH2 0x1694 DUP3 PUSH1 0x0 DUP4 PUSH2 0x196B JUMP JUMPDEST POP POP JUMP JUMPDEST PUSH1 0x0 PUSH1 0x3 DUP3 GT ISZERO PUSH2 0x16FF JUMPI DUP2 SWAP1 POP PUSH1 0x0 PUSH1 0x1 PUSH1 0x2 DUP5 PUSH2 0x16B7 SWAP2 SWAP1 PUSH2 0x2184 JUMP JUMPDEST PUSH2 0x16C1 SWAP2 SWAP1 PUSH2 0x237A JUMP JUMPDEST SWAP1 POP JUMPDEST DUP2 DUP2 LT ISZERO PUSH2 0x16F9 JUMPI DUP1 SWAP2 POP PUSH1 0x2 DUP2 DUP3 DUP6 PUSH2 0x16DE SWAP2 SWAP1 PUSH2 0x2184 JUMP JUMPDEST PUSH2 0x16E8 SWAP2 SWAP1 PUSH2 0x237A JUMP JUMPDEST PUSH2 0x16F2 SWAP2 SWAP1 PUSH2 0x2184 JUMP JUMPDEST SWAP1 POP PUSH2 0x16C4 JUMP JUMPDEST POP PUSH2 0x170D JUMP JUMPDEST PUSH1 0x0 DUP3 EQ PUSH2 0x170C JUMPI PUSH1 0x1 SWAP1 POP JUMPDEST JUMPDEST SWAP2 SWAP1 POP JUMP JUMPDEST PUSH1 0x0 PUSH20 0xFFFFFFFFFFFFFFFFFFFFFFFFFFFFFFFFFFFFFFFF AND DUP3 PUSH20 0xFFFFFFFFFFFFFFFFFFFFFFFFFFFFFFFFFFFFFFFF AND SUB PUSH2 0x1784 JUMPI PUSH1 0x0 PUSH1 0x40 MLOAD PUSH32 0xEC442F0500000000000000000000000000000000000000000000000000000000 DUP2 MSTORE PUSH1 0x4 ADD PUSH2 0x177B SWAP2 SWAP1 PUSH2 0x1F51 JUMP JUMPDEST PUSH1 0x40 MLOAD DUP1 SWAP2 SUB SWAP1 REVERT JUMPDEST PUSH2 0x1790 PUSH1 0x0 DUP4 DUP4 PUSH2 0x196B JUMP JUMPDEST POP POP JUMP JUMPDEST PUSH1 0x0 PUSH20 0xFFFFFFFFFFFFFFFFFFFFFFFFFFFFFFFFFFFFFFFF AND DUP5 PUSH20 0xFFFFFFFFFFFFFFFFFFFFFFFFFFFFFFFFFFFFFFFF AND SUB PUSH2 0x1806 JUMPI PUSH1 0x0 PUSH1 0x40 MLOAD PUSH32 0xE602DF0500000000000000000000000000000000000000000000000000000000 DUP2 MSTORE PUSH1 0x4 ADD PUSH2 0x17FD SWAP2 SWAP1 PUSH2 0x1F51 JUMP JUMPDEST PUSH1 0x40 MLOAD DUP1 SWAP2 SUB SWAP1 REVERT JUMPDEST PUSH1 0x0 PUSH20 0xFFFFFFFFFFFFFFFFFFFFFFFFFFFFFFFFFFFFFFFF AND DUP4 PUSH20 0xFFFFFFFFFFFFFFFFFFFFFFFFFFFFFFFFFFFFFFFF AND SUB PUSH2 0x1878 JUMPI PUSH1 0x0 PUSH1 0x40 MLOAD PUSH32 0x94280D6200000000000000000000000000000000000000000000000000000000 DUP2 MSTORE PUSH1 0x4 ADD PUSH2 0x186F SWAP2 SWAP1 PUSH2 0x1F51 JUMP JUMPDEST PUSH1 0x40 MLOAD DUP1 SWAP2 SUB SWAP1 REVERT JUMPDEST DUP2 PUSH1 0x1 PUSH1 0x0 DUP7 PUSH20 0xFFFFFFFFFFFFFFFFFFFFFFFFFFFFFFFFFFFFFFFF AND PUSH20 0xFFFFFFFFFFFFFFFFFFFFFFFFFFFFFFFFFFFFFFFF AND DUP2 MSTORE PUSH1 0x20 ADD SWAP1 DUP2 MSTORE PUSH1 0x20 ADD PUSH1 0x0 KECCAK256 PUSH1 0x0 DUP6 PUSH20 0xFFFFFFFFFFFFFFFFFFFFFFFFFFFFFFFFFFFFFFFF AND PUSH20 0xFFFFFFFFFFFFFFFFFFFFFFFFFFFFFFFFFFFFFFFF AND DUP2 MSTORE PUSH1 0x20 ADD SWAP1 DUP2 MSTORE PUSH1 0x20 ADD PUSH1 0x0 KECCAK256 DUP2 SWAP1 SSTORE POP DUP1 ISZERO PUSH2 0x1965 JUMPI DUP3 PUSH20 0xFFFFFFFFFFFFFFFFFFFFFFFFFFFFFFFFFFFFFFFF AND DUP5 PUSH20 0xFFFFFFFFFFFFFFFFFFFFFFFFFFFFFFFFFFFFFFFF AND PUSH32 0x8C5BE1E5EBEC7D5BD14F71427D1E84F3DD0314C0F7B2291E5B200AC8C7C3B925 DUP5 PUSH1 0x40 MLOAD PUSH2 0x195C SWAP2 SWAP1 PUSH2 0x1DDA JUMP JUMPDEST PUSH1 0x40 MLOAD DUP1 SWAP2 SUB SWAP1 LOG3 JUMPDEST POP POP POP POP JUMP JUMPDEST PUSH1 0x0 PUSH20 0xFFFFFFFFFFFFFFFFFFFFFFFFFFFFFFFFFFFFFFFF AND DUP4 PUSH20 0xFFFFFFFFFFFFFFFFFFFFFFFFFFFFFFFFFFFFFFFF AND SUB PUSH2 0x19BD JUMPI DUP1 PUSH1 0x2 PUSH1 0x0 DUP3 DUP3 SLOAD PUSH2 0x19B1 SWAP2 SWAP1 PUSH2 0x237A JUMP JUMPDEST SWAP3 POP POP DUP2 SWAP1 SSTORE POP PUSH2 0x1A90 JUMP JUMPDEST PUSH1 0x0 DUP1 PUSH1 0x0 DUP6 PUSH20 0xFFFFFFFFFFFFFFFFFFFFFFFFFFFFFFFFFFFFFFFF AND PUSH20 0xFFFFFFFFFFFFFFFFFFFFFFFFFFFFFFFFFFFFFFFF AND DUP2 MSTORE PUSH1 0x20 ADD SWAP1 DUP2 MSTORE PUSH1 0x20 ADD PUSH1 0x0 KECCAK256 SLOAD SWAP1 POP DUP2 DUP2 LT ISZERO PUSH2 0x1A49 JUMPI DUP4 DUP2 DUP4 PUSH1 0x40 MLOAD PUSH32 0xE450D38C00000000000000000000000000000000000000000000000000000000 DUP2 MSTORE PUSH1 0x4 ADD PUSH2 0x1A40 SWAP4 SWAP3 SWAP2 SWAP1 PUSH2 0x271E JUMP JUMPDEST PUSH1 0x40 MLOAD DUP1 SWAP2 SUB SWAP1 REVERT JUMPDEST DUP2 DUP2 SUB PUSH1 0x0 DUP1 DUP7 PUSH20 0xFFFFFFFFFFFFFFFFFFFFFFFFFFFFFFFFFFFFFFFF AND PUSH20 0xFFFFFFFFFFFFFFFFFFFFFFFFFFFFFFFFFFFFFFFF AND DUP2 MSTORE PUSH1 0x20 ADD SWAP1 DUP2 MSTORE PUSH1 0x20 ADD PUSH1 0x0 KECCAK256 DUP2 SWAP1 SSTORE POP POP JUMPDEST PUSH1 0x0 PUSH20 0xFFFFFFFFFFFFFFFFFFFFFFFFFFFFFFFFFFFFFFFF AND DUP3 PUSH20 0xFFFFFFFFFFFFFFFFFFFFFFFFFFFFFFFFFFFFFFFF AND SUB PUSH2 0x1AD9 JUMPI DUP1 PUSH1 0x2 PUSH1 0x0 DUP3 DUP3 SLOAD SUB SWAP3 POP POP DUP2 SWAP1 SSTORE POP PUSH2 0x1B26 JUMP JUMPDEST DUP1 PUSH1 0x0 DUP1 DUP5 PUSH20 0xFFFFFFFFFFFFFFFFFFFFFFFFFFFFFFFFFFFFFFFF AND PUSH20 0xFFFFFFFFFFFFFFFFFFFFFFFFFFFFFFFFFFFFFFFF AND DUP2 MSTORE PUSH1 0x20 ADD SWAP1 DUP2 MSTORE PUSH1 0x20 ADD PUSH1 0x0 KECCAK256 PUSH1 0x0 DUP3 DUP3 SLOAD ADD SWAP3 POP POP DUP2 SWAP1 SSTORE POP JUMPDEST DUP2 PUSH20 0xFFFFFFFFFFFFFFFFFFFFFFFFFFFFFFFFFFFFFFFF AND DUP4 PUSH20 0xFFFFFFFFFFFFFFFFFFFFFFFFFFFFFFFFFFFFFFFF AND PUSH32 0xDDF252AD1BE2C89B69C2B068FC378DAA952BA7F163C4A11628F55A4DF523B3EF DUP4 PUSH1 0x40 MLOAD PUSH2 0x1B83 SWAP2 SWAP1 PUSH2 0x1DDA JUMP JUMPDEST PUSH1 0x40 MLOAD DUP1 SWAP2 SUB SWAP1 LOG3 POP POP POP JUMP JUMPDEST PUSH1 0x0 DUP2 MLOAD SWAP1 POP SWAP2 SWAP1 POP JUMP JUMPDEST PUSH1 0x0 DUP3 DUP3 MSTORE PUSH1 0x20 DUP3 ADD SWAP1 POP SWAP3 SWAP2 POP POP JUMP JUMPDEST PUSH1 0x0 JUMPDEST DUP4 DUP2 LT ISZERO PUSH2 0x1BCA JUMPI DUP1 DUP3 ADD MLOAD DUP2 DUP5 ADD MSTORE PUSH1 0x20 DUP2 ADD SWAP1 POP PUSH2 0x1BAF JUMP JUMPDEST PUSH1 0x0 DUP5 DUP5 ADD MSTORE POP POP POP POP JUMP JUMPDEST PUSH1 0x0 PUSH1 0x1F NOT PUSH1 0x1F DUP4 ADD AND SWAP1 POP SWAP2 SWAP1 POP JUMP JUMPDEST PUSH1 0x0 PUSH2 0x1BF2 DUP3 PUSH2 0x1B90 JUMP JUMPDEST PUSH2 0x1BFC DUP2 DUP6 PUSH2 0x1B9B JUMP JUMPDEST SWAP4 POP PUSH2 0x1C0C DUP2 DUP6 PUSH1 0x20 DUP7 ADD PUSH2 0x1BAC JUMP JUMPDEST PUSH2 0x1C15 DUP2 PUSH2 0x1BD6 JUMP JUMPDEST DUP5 ADD SWAP2 POP POP SWAP3 SWAP2 POP POP JUMP JUMPDEST PUSH1 0x0 PUSH1 0x20 DUP3 ADD SWAP1 POP DUP2 DUP2 SUB PUSH1 0x0 DUP4 ADD MSTORE PUSH2 0x1C3A DUP2 DUP5 PUSH2 0x1BE7 JUMP JUMPDEST SWAP1 POP SWAP3 SWAP2 POP POP JUMP JUMPDEST PUSH1 0x0 DUP1 REVERT JUMPDEST PUSH1 0x0 PUSH20 0xFFFFFFFFFFFFFFFFFFFFFFFFFFFFFFFFFFFFFFFF DUP3 AND SWAP1 POP SWAP2 SWAP1 POP JUMP JUMPDEST PUSH1 0x0 PUSH2 0x1C72 DUP3 PUSH2 0x1C47 JUMP JUMPDEST SWAP1 POP SWAP2 SWAP1 POP JUMP JUMPDEST PUSH2 0x1C82 DUP2 PUSH2 0x1C67 JUMP JUMPDEST DUP2 EQ PUSH2 0x1C8D JUMPI PUSH1 0x0 DUP1 REVERT JUMPDEST POP JUMP JUMPDEST PUSH1 0x0 DUP2 CALLDATALOAD SWAP1 POP PUSH2 0x1C9F DUP2 PUSH2 0x1C79 JUMP JUMPDEST SWAP3 SWAP2 POP POP JUMP JUMPDEST PUSH1 0x0 DUP2 SWAP1 POP SWAP2 SWAP1 POP JUMP JUMPDEST PUSH2 0x1CB8 DUP2 PUSH2 0x1CA5 JUMP JUMPDEST DUP2 EQ PUSH2 0x1CC3 JUMPI PUSH1 0x0 DUP1 REVERT JUMPDEST POP JUMP JUMPDEST PUSH1 0x0 DUP2 CALLDATALOAD SWAP1 POP PUSH2 0x1CD5 DUP2 PUSH2 0x1CAF JUMP JUMPDEST SWAP3 SWAP2 POP POP JUMP JUMPDEST PUSH1 0x0 DUP1 PUSH1 0x40 DUP4 DUP6 SUB SLT ISZERO PUSH2 0x1CF2 JUMPI PUSH2 0x1CF1 PUSH2 0x1C42 JUMP JUMPDEST JUMPDEST PUSH1 0x0 PUSH2 0x1D00 DUP6 DUP3 DUP7 ADD PUSH2 0x1C90 JUMP JUMPDEST SWAP3 POP POP PUSH1 0x20 PUSH2 0x1D11 DUP6 DUP3 DUP7 ADD PUSH2 0x1CC6 JUMP JUMPDEST SWAP2 POP POP SWAP3 POP SWAP3 SWAP1 POP JUMP JUMPDEST PUSH1 0x0 DUP2 ISZERO ISZERO SWAP1 POP SWAP2 SWAP1 POP JUMP JUMPDEST PUSH2 0x1D30 DUP2 PUSH2 0x1D1B JUMP JUMPDEST DUP3 MSTORE POP POP JUMP JUMPDEST PUSH1 0x0 PUSH1 0x20 DUP3 ADD SWAP1 POP PUSH2 0x1D4B PUSH1 0x0 DUP4 ADD DUP5 PUSH2 0x1D27 JUMP JUMPDEST SWAP3 SWAP2 POP POP JUMP JUMPDEST PUSH1 0x0 DUP2 SWAP1 POP SWAP2 SWAP1 POP JUMP JUMPDEST PUSH1 0x0 PUSH2 0x1D76 PUSH2 0x1D71 PUSH2 0x1D6C DUP5 PUSH2 0x1C47 JUMP JUMPDEST PUSH2 0x1D51 JUMP JUMPDEST PUSH2 0x1C47 JUMP JUMPDEST SWAP1 POP SWAP2 SWAP1 POP JUMP JUMPDEST PUSH1 0x0 PUSH2 0x1D88 DUP3 PUSH2 0x1D5B JUMP JUMPDEST SWAP1 POP SWAP2 SWAP1 POP JUMP JUMPDEST PUSH1 0x0 PUSH2 0x1D9A DUP3 PUSH2 0x1D7D JUMP JUMPDEST SWAP1 POP SWAP2 SWAP1 POP JUMP JUMPDEST PUSH2 0x1DAA DUP2 PUSH2 0x1D8F JUMP JUMPDEST DUP3 MSTORE POP POP JUMP JUMPDEST PUSH1 0x0 PUSH1 0x20 DUP3 ADD SWAP1 POP PUSH2 0x1DC5 PUSH1 0x0 DUP4 ADD DUP5 PUSH2 0x1DA1 JUMP JUMPDEST SWAP3 SWAP2 POP POP JUMP JUMPDEST PUSH2 0x1DD4 DUP2 PUSH2 0x1CA5 JUMP JUMPDEST DUP3 MSTORE POP POP JUMP JUMPDEST PUSH1 0x0 PUSH1 0x20 DUP3 ADD SWAP1 POP PUSH2 0x1DEF PUSH1 0x0 DUP4 ADD DUP5 PUSH2 0x1DCB JUMP JUMPDEST SWAP3 SWAP2 POP POP JUMP JUMPDEST PUSH1 0x0 DUP1 PUSH1 0x0 PUSH1 0x60 DUP5 DUP7 SUB SLT ISZERO PUSH2 0x1E0E JUMPI PUSH2 0x1E0D PUSH2 0x1C42 JUMP JUMPDEST JUMPDEST PUSH1 0x0 PUSH2 0x1E1C DUP7 DUP3 DUP8 ADD PUSH2 0x1C90 JUMP JUMPDEST SWAP4 POP POP PUSH1 0x20 PUSH2 0x1E2D DUP7 DUP3 DUP8 ADD PUSH2 0x1C90 JUMP JUMPDEST SWAP3 POP POP PUSH1 0x40 PUSH2 0x1E3E DUP7 DUP3 DUP8 ADD PUSH2 0x1CC6 JUMP JUMPDEST SWAP2 POP POP SWAP3 POP SWAP3 POP SWAP3 JUMP JUMPDEST PUSH1 0x0 PUSH1 0xFF DUP3 AND SWAP1 POP SWAP2 SWAP1 POP JUMP JUMPDEST PUSH2 0x1E5E DUP2 PUSH2 0x1E48 JUMP JUMPDEST DUP3 MSTORE POP POP JUMP JUMPDEST PUSH1 0x0 PUSH1 0x20 DUP3 ADD SWAP1 POP PUSH2 0x1E79 PUSH1 0x0 DUP4 ADD DUP5 PUSH2 0x1E55 JUMP JUMPDEST SWAP3 SWAP2 POP POP JUMP JUMPDEST PUSH1 0x0 PUSH1 0x20 DUP3 DUP5 SUB SLT ISZERO PUSH2 0x1E95 JUMPI PUSH2 0x1E94 PUSH2 0x1C42 JUMP JUMPDEST JUMPDEST PUSH1 0x0 PUSH2 0x1EA3 DUP5 DUP3 DUP6 ADD PUSH2 0x1C90 JUMP JUMPDEST SWAP2 POP POP SWAP3 SWAP2 POP POP JUMP JUMPDEST PUSH1 0x0 PUSH1 0x20 DUP3 DUP5 SUB SLT ISZERO PUSH2 0x1EC2 JUMPI PUSH2 0x1EC1 PUSH2 0x1C42 JUMP JUMPDEST JUMPDEST PUSH1 0x0 PUSH2 0x1ED0 DUP5 DUP3 DUP6 ADD PUSH2 0x1CC6 JUMP JUMPDEST SWAP2 POP POP SWAP3 SWAP2 POP POP JUMP JUMPDEST PUSH1 0x0 PUSH1 0x40 DUP3 ADD SWAP1 POP PUSH2 0x1EEE PUSH1 0x0 DUP4 ADD DUP6 PUSH2 0x1DCB JUMP JUMPDEST PUSH2 0x1EFB PUSH1 0x20 DUP4 ADD DUP5 PUSH2 0x1DCB JUMP JUMPDEST SWAP4 SWAP3 POP POP POP JUMP JUMPDEST PUSH1 0x0 DUP1 PUSH1 0x40 DUP4 DUP6 SUB SLT ISZERO PUSH2 0x1F19 JUMPI PUSH2 0x1F18 PUSH2 0x1C42 JUMP JUMPDEST JUMPDEST PUSH1 0x0 PUSH2 0x1F27 DUP6 DUP3 DUP7 ADD PUSH2 0x1CC6 JUMP JUMPDEST SWAP3 POP POP PUSH1 0x20 PUSH2 0x1F38 DUP6 DUP3 DUP7 ADD PUSH2 0x1CC6 JUMP JUMPDEST SWAP2 POP POP SWAP3 POP SWAP3 SWAP1 POP JUMP JUMPDEST PUSH2 0x1F4B DUP2 PUSH2 0x1C67 JUMP JUMPDEST DUP3 MSTORE POP POP JUMP JUMPDEST PUSH1 0x0 PUSH1 0x20 DUP3 ADD SWAP1 POP PUSH2 0x1F66 PUSH1 0x0 DUP4 ADD DUP5 PUSH2 0x1F42 JUMP JUMPDEST SWAP3 SWAP2 POP POP JUMP JUMPDEST PUSH1 0x0 DUP1 PUSH1 0x40 DUP4 DUP6 SUB SLT ISZERO PUSH2 0x1F83 JUMPI PUSH2 0x1F82 PUSH2 0x1C42 JUMP JUMPDEST JUMPDEST PUSH1 0x0 PUSH2 0x1F91 DUP6 DUP3 DUP7 ADD PUSH2 0x1C90 JUMP JUMPDEST SWAP3 POP POP PUSH1 0x20 PUSH2 0x1FA2 DUP6 DUP3 DUP7 ADD PUSH2 0x1C90 JUMP JUMPDEST SWAP2 POP POP SWAP3 POP SWAP3 SWAP1 POP JUMP JUMPDEST PUSH32 0x4E487B7100000000000000000000000000000000000000000000000000000000 PUSH1 0x0 MSTORE PUSH1 0x22 PUSH1 0x4 MSTORE PUSH1 0x24 PUSH1 0x0 REVERT JUMPDEST PUSH1 0x0 PUSH1 0x2 DUP3 DIV SWAP1 POP PUSH1 0x1 DUP3 AND DUP1 PUSH2 0x1FF3 JUMPI PUSH1 0x7F DUP3 AND SWAP2 POP JUMPDEST PUSH1 0x20 DUP3 LT DUP2 SUB PUSH2 0x2006 JUMPI PUSH2 0x2005 PUSH2 0x1FAC JUMP JUMPDEST JUMPDEST POP SWAP2 SWAP1 POP JUMP JUMPDEST PUSH32 0x5265656E7472616E742063616C6C000000000000000000000000000000000000 PUSH1 0x0 DUP3 ADD MSTORE POP JUMP JUMPDEST PUSH1 0x0 PUSH2 0x2042 PUSH1 0xE DUP4 PUSH2 0x1B9B JUMP JUMPDEST SWAP2 POP PUSH2 0x204D DUP3 PUSH2 0x200C JUMP JUMPDEST PUSH1 0x20 DUP3 ADD SWAP1 POP SWAP2 SWAP1 POP JUMP JUMPDEST PUSH1 0x0 PUSH1 0x20 DUP3 ADD SWAP1 POP DUP2 DUP2 SUB PUSH1 0x0 DUP4 ADD MSTORE PUSH2 0x2071 DUP2 PUSH2 0x2035 JUMP JUMPDEST SWAP1 POP SWAP2 SWAP1 POP JUMP JUMPDEST PUSH32 0x496E76616C6964204C5020746F6B656E20616D6F756E74000000000000000000 PUSH1 0x0 DUP3 ADD MSTORE POP JUMP JUMPDEST PUSH1 0x0 PUSH2 0x20AE PUSH1 0x17 DUP4 PUSH2 0x1B9B JUMP JUMPDEST SWAP2 POP PUSH2 0x20B9 DUP3 PUSH2 0x2078 JUMP JUMPDEST PUSH1 0x20 DUP3 ADD SWAP1 POP SWAP2 SWAP1 POP JUMP JUMPDEST PUSH1 0x0 PUSH1 0x20 DUP3 ADD SWAP1 POP DUP2 DUP2 SUB PUSH1 0x0 DUP4 ADD MSTORE PUSH2 0x20DD DUP2 PUSH2 0x20A1 JUMP JUMPDEST SWAP1 POP SWAP2 SWAP1 POP JUMP JUMPDEST PUSH32 0x4E487B7100000000000000000000000000000000000000000000000000000000 PUSH1 0x0 MSTORE PUSH1 0x11 PUSH1 0x4 MSTORE PUSH1 0x24 PUSH1 0x0 REVERT JUMPDEST PUSH1 0x0 PUSH2 0x211E DUP3 PUSH2 0x1CA5 JUMP JUMPDEST SWAP2 POP PUSH2 0x2129 DUP4 PUSH2 0x1CA5 JUMP JUMPDEST SWAP3 POP DUP3 DUP3 MUL PUSH2 0x2137 DUP2 PUSH2 0x1CA5 JUMP JUMPDEST SWAP2 POP DUP3 DUP3 DIV DUP5 EQ DUP4 ISZERO OR PUSH2 0x214E JUMPI PUSH2 0x214D PUSH2 0x20E4 JUMP JUMPDEST JUMPDEST POP SWAP3 SWAP2 POP POP JUMP JUMPDEST PUSH32 0x4E487B7100000000000000000000000000000000000000000000000000000000 PUSH1 0x0 MSTORE PUSH1 0x12 PUSH1 0x4 MSTORE PUSH1 0x24 PUSH1 0x0 REVERT JUMPDEST PUSH1 0x0 PUSH2 0x218F DUP3 PUSH2 0x1CA5 JUMP JUMPDEST SWAP2 POP PUSH2 0x219A DUP4 PUSH2 0x1CA5 JUMP JUMPDEST SWAP3 POP DUP3 PUSH2 0x21AA JUMPI PUSH2 0x21A9 PUSH2 0x2155 JUMP JUMPDEST JUMPDEST DUP3 DUP3 DIV SWAP1 POP SWAP3 SWAP2 POP POP JUMP JUMPDEST PUSH1 0x0 PUSH2 0x21C0 DUP3 PUSH2 0x1CA5 JUMP JUMPDEST SWAP2 POP PUSH2 0x21CB DUP4 PUSH2 0x1CA5 JUMP JUMPDEST SWAP3 POP DUP3 DUP3 SUB SWAP1 POP DUP2 DUP2 GT ISZERO PUSH2 0x21E3 JUMPI PUSH2 0x21E2 PUSH2 0x20E4 JUMP JUMPDEST JUMPDEST SWAP3 SWAP2 POP POP JUMP JUMPDEST PUSH1 0x0 PUSH1 0x40 DUP3 ADD SWAP1 POP PUSH2 0x21FE PUSH1 0x0 DUP4 ADD DUP6 PUSH2 0x1F42 JUMP JUMPDEST PUSH2 0x220B PUSH1 0x20 DUP4 ADD DUP5 PUSH2 0x1DCB JUMP JUMPDEST SWAP4 SWAP3 POP POP POP JUMP JUMPDEST PUSH2 0x221B DUP2 PUSH2 0x1D1B JUMP JUMPDEST DUP2 EQ PUSH2 0x2226 JUMPI PUSH1 0x0 DUP1 REVERT JUMPDEST POP JUMP JUMPDEST PUSH1 0x0 DUP2 MLOAD SWAP1 POP PUSH2 0x2238 DUP2 PUSH2 0x2212 JUMP JUMPDEST SWAP3 SWAP2 POP POP JUMP JUMPDEST PUSH1 0x0 PUSH1 0x20 DUP3 DUP5 SUB SLT ISZERO PUSH2 0x2254 JUMPI PUSH2 0x2253 PUSH2 0x1C42 JUMP JUMPDEST JUMPDEST PUSH1 0x0 PUSH2 0x2262 DUP5 DUP3 DUP6 ADD PUSH2 0x2229 JUMP JUMPDEST SWAP2 POP POP SWAP3 SWAP2 POP POP JUMP JUMPDEST PUSH32 0x546F6B656E207472616E73666572206661696C65640000000000000000000000 PUSH1 0x0 DUP3 ADD MSTORE POP JUMP JUMPDEST PUSH1 0x0 PUSH2 0x22A1 PUSH1 0x15 DUP4 PUSH2 0x1B9B JUMP JUMPDEST SWAP2 POP PUSH2 0x22AC DUP3 PUSH2 0x226B JUMP JUMPDEST PUSH1 0x20 DUP3 ADD SWAP1 POP SWAP2 SWAP1 POP JUMP JUMPDEST PUSH1 0x0 PUSH1 0x20 DUP3 ADD SWAP1 POP DUP2 DUP2 SUB PUSH1 0x0 DUP4 ADD MSTORE PUSH2 0x22D0 DUP2 PUSH2 0x2294 JUMP JUMPDEST SWAP1 POP SWAP2 SWAP1 POP JUMP JUMPDEST PUSH32 0x496E76616C696420616D6F756E74730000000000000000000000000000000000 PUSH1 0x0 DUP3 ADD MSTORE POP JUMP JUMPDEST PUSH1 0x0 PUSH2 0x230D PUSH1 0xF DUP4 PUSH2 0x1B9B JUMP JUMPDEST SWAP2 POP PUSH2 0x2318 DUP3 PUSH2 0x22D7 JUMP JUMPDEST PUSH1 0x20 DUP3 ADD SWAP1 POP SWAP2 SWAP1 POP JUMP JUMPDEST PUSH1 0x0 PUSH1 0x20 DUP3 ADD SWAP1 POP DUP2 DUP2 SUB PUSH1 0x0 DUP4 ADD MSTORE PUSH2 0x233C DUP2 PUSH2 0x2300 JUMP JUMPDEST SWAP1 POP SWAP2 SWAP1 POP JUMP JUMPDEST PUSH1 0x0 PUSH1 0x60 DUP3 ADD SWAP1 POP PUSH2 0x2358 PUSH1 0x0 DUP4 ADD DUP7 PUSH2 0x1F42 JUMP JUMPDEST PUSH2 0x2365 PUSH1 0x20 DUP4 ADD DUP6 PUSH2 0x1F42 JUMP JUMPDEST PUSH2 0x2372 PUSH1 0x40 DUP4 ADD DUP5 PUSH2 0x1DCB JUMP JUMPDEST SWAP5 SWAP4 POP POP POP POP JUMP JUMPDEST PUSH1 0x0 PUSH2 0x2385 DUP3 PUSH2 0x1CA5 JUMP JUMPDEST SWAP2 POP PUSH2 0x2390 DUP4 PUSH2 0x1CA5 JUMP JUMPDEST SWAP3 POP DUP3 DUP3 ADD SWAP1 POP DUP1 DUP3 GT ISZERO PUSH2 0x23A8 JUMPI PUSH2 0x23A7 PUSH2 0x20E4 JUMP JUMPDEST JUMPDEST SWAP3 SWAP2 POP POP JUMP JUMPDEST PUSH1 0x0 PUSH1 0x60 DUP3 ADD SWAP1 POP PUSH2 0x23C3 PUSH1 0x0 DUP4 ADD DUP7 PUSH2 0x1DCB JUMP JUMPDEST PUSH2 0x23D0 PUSH1 0x20 DUP4 ADD DUP6 PUSH2 0x1DCB JUMP JUMPDEST PUSH2 0x23DD PUSH1 0x40 DUP4 ADD DUP5 PUSH2 0x1DCB JUMP JUMPDEST SWAP5 SWAP4 POP POP POP POP JUMP JUMPDEST PUSH32 0x496E76616C696420696E70757420746F6B656E00000000000000000000000000 PUSH1 0x0 DUP3 ADD MSTORE POP JUMP JUMPDEST PUSH1 0x0 PUSH2 0x241B PUSH1 0x13 DUP4 PUSH2 0x1B9B JUMP JUMPDEST SWAP2 POP PUSH2 0x2426 DUP3 PUSH2 0x23E5 JUMP JUMPDEST PUSH1 0x20 DUP3 ADD SWAP1 POP SWAP2 SWAP1 POP JUMP JUMPDEST PUSH1 0x0 PUSH1 0x20 DUP3 ADD SWAP1 POP DUP2 DUP2 SUB PUSH1 0x0 DUP4 ADD MSTORE PUSH2 0x244A DUP2 PUSH2 0x240E JUMP JUMPDEST SWAP1 POP SWAP2 SWAP1 POP JUMP JUMPDEST PUSH32 0x496E76616C6964206F757470757420746F6B656E000000000000000000000000 PUSH1 0x0 DUP3 ADD MSTORE POP JUMP JUMPDEST PUSH1 0x0 PUSH2 0x2487 PUSH1 0x14 DUP4 PUSH2 0x1B9B JUMP JUMPDEST SWAP2 POP PUSH2 0x2492 DUP3 PUSH2 0x2451 JUMP JUMPDEST PUSH1 0x20 DUP3 ADD SWAP1 POP SWAP2 SWAP1 POP JUMP JUMPDEST PUSH1 0x0 PUSH1 0x20 DUP3 ADD SWAP1 POP DUP2 DUP2 SUB PUSH1 0x0 DUP4 ADD MSTORE PUSH2 0x24B6 DUP2 PUSH2 0x247A JUMP JUMPDEST SWAP1 POP SWAP2 SWAP1 POP JUMP JUMPDEST PUSH32 0x43616E6E6F7420737761702073616D6520746F6B656E00000000000000000000 PUSH1 0x0 DUP3 ADD MSTORE POP JUMP JUMPDEST PUSH1 0x0 PUSH2 0x24F3 PUSH1 0x16 DUP4 PUSH2 0x1B9B JUMP JUMPDEST SWAP2 POP PUSH2 0x24FE DUP3 PUSH2 0x24BD JUMP JUMPDEST PUSH1 0x20 DUP3 ADD SWAP1 POP SWAP2 SWAP1 POP JUMP JUMPDEST PUSH1 0x0 PUSH1 0x20 DUP3 ADD SWAP1 POP DUP2 DUP2 SUB PUSH1 0x0 DUP4 ADD MSTORE PUSH2 0x2522 DUP2 PUSH2 0x24E6 JUMP JUMPDEST SWAP1 POP SWAP2 SWAP1 POP JUMP JUMPDEST PUSH32 0x496E76616C696420616D6F756E74000000000000000000000000000000000000 PUSH1 0x0 DUP3 ADD MSTORE POP JUMP JUMPDEST PUSH1 0x0 PUSH2 0x255F PUSH1 0xE DUP4 PUSH2 0x1B9B JUMP JUMPDEST SWAP2 POP PUSH2 0x256A DUP3 PUSH2 0x2529 JUMP JUMPDEST PUSH1 0x20 DUP3 ADD SWAP1 POP SWAP2 SWAP1 POP JUMP JUMPDEST PUSH1 0x0 PUSH1 0x20 DUP3 ADD SWAP1 POP DUP2 DUP2 SUB PUSH1 0x0 DUP4 ADD MSTORE PUSH2 0x258E DUP2 PUSH2 0x2552 JUMP JUMPDEST SWAP1 POP SWAP2 SWAP1 POP JUMP JUMPDEST PUSH32 0x496E707574207472616E73666572206661696C65640000000000000000000000 PUSH1 0x0 DUP3 ADD MSTORE POP JUMP JUMPDEST PUSH1 0x0 PUSH2 0x25CB PUSH1 0x15 DUP4 PUSH2 0x1B9B JUMP JUMPDEST SWAP2 POP PUSH2 0x25D6 DUP3 PUSH2 0x2595 JUMP JUMPDEST PUSH1 0x20 DUP3 ADD SWAP1 POP SWAP2 SWAP1 POP JUMP JUMPDEST PUSH1 0x0 PUSH1 0x20 DUP3 ADD SWAP1 POP DUP2 DUP2 SUB PUSH1 0x0 DUP4 ADD MSTORE PUSH2 0x25FA DUP2 PUSH2 0x25BE JUMP JUMPDEST SWAP1 POP SWAP2 SWAP1 POP JUMP JUMPDEST PUSH32 0x466565207472616E73666572206661696C656400000000000000000000000000 PUSH1 0x0 DUP3 ADD MSTORE POP JUMP JUMPDEST PUSH1 0x0 PUSH2 0x2637 PUSH1 0x13 DUP4 PUSH2 0x1B9B JUMP JUMPDEST SWAP2 POP PUSH2 0x2642 DUP3 PUSH2 0x2601 JUMP JUMPDEST PUSH1 0x20 DUP3 ADD SWAP1 POP SWAP2 SWAP1 POP JUMP JUMPDEST PUSH1 0x0 PUSH1 0x20 DUP3 ADD SWAP1 POP DUP2 DUP2 SUB PUSH1 0x0 DUP4 ADD MSTORE PUSH2 0x2666 DUP2 PUSH2 0x262A JUMP JUMPDEST SWAP1 POP SWAP2 SWAP1 POP JUMP JUMPDEST PUSH32 0x4F7574707574207472616E73666572206661696C656400000000000000000000 PUSH1 0x0 DUP3 ADD MSTORE POP JUMP JUMPDEST PUSH1 0x0 PUSH2 0x26A3 PUSH1 0x16 DUP4 PUSH2 0x1B9B JUMP JUMPDEST SWAP2 POP PUSH2 0x26AE DUP3 PUSH2 0x266D JUMP JUMPDEST PUSH1 0x20 DUP3 ADD SWAP1 POP SWAP2 SWAP1 POP JUMP JUMPDEST PUSH1 0x0 PUSH1 0x20 DUP3 ADD SWAP1 POP DUP2 DUP2 SUB PUSH1 0x0 DUP4 ADD MSTORE PUSH2 0x26D2 DUP2 PUSH2 0x2696 JUMP JUMPDEST SWAP1 POP SWAP2 SWAP1 POP JUMP JUMPDEST PUSH1 0x0 PUSH1 0x80 DUP3 ADD SWAP1 POP PUSH2 0x26EE PUSH1 0x0 DUP4 ADD DUP8 PUSH2 0x1F42 JUMP JUMPDEST PUSH2 0x26FB PUSH1 0x20 DUP4 ADD DUP7 PUSH2 0x1F42 JUMP JUMPDEST PUSH2 0x2708 PUSH1 0x40 DUP4 ADD DUP6 PUSH2 0x1DCB JUMP JUMPDEST PUSH2 0x2715 PUSH1 0x60 DUP4 ADD DUP5 PUSH2 0x1DCB JUMP JUMPDEST SWAP6 SWAP5 POP POP POP POP POP JUMP JUMPDEST PUSH1 0x0 PUSH1 0x60 DUP3 ADD SWAP1 POP PUSH2 0x2733 PUSH1 0x0 DUP4 ADD DUP7 PUSH2 0x1F42 JUMP JUMPDEST PUSH2 0x2740 PUSH1 0x20 DUP4 ADD DUP6 PUSH2 0x1DCB JUMP JUMPDEST PUSH2 0x274D PUSH1 0x40 DUP4 ADD DUP5 PUSH2 0x1DCB JUMP JUMPDEST SWAP5 SWAP4 POP POP POP POP JUMP INVALID LOG2 PUSH5 0x6970667358 0x22 SLT KECCAK256 SELFDESTRUCT SLOAD NOT 0x2F MCOPY SWAP3 PUSH2 0xC755 0xB4 0x28 CALLDATACOPY CODECOPY MUL BASEFEE PUSH26 0x1091D54DA305865F8E16C84F6172885964736F6C634300081C00 CALLER "
        },
        "methodIdentifiers": {
          "FEE_PERCENT()": "eaf98d23",
          "addLiquidity(uint256,uint256)": "9cd441da",
          "allowance(address,address)": "dd62ed3e",
          "approve(address,uint256)": "095ea7b3",
          "balanceOf(address)": "70a08231",
          "decimals()": "313ce567",
          "feeReceiver()": "b3f00674",
          "name()": "06fdde03",
          "removeLiquidity(uint256)": "9c8f9f23",
          "reserveA()": "dc5fa6c5",
          "reserveB()": "19e36f3b",
          "swap(address,address,uint256)": "df791e50",
          "symbol()": "95d89b41",
          "tokenA()": "0fc63d10",
          "tokenB()": "5f64b55b",
          "totalSupply()": "18160ddd",
          "transfer(address,uint256)": "a9059cbb",
          "transferFrom(address,address,uint256)": "23b872dd"
        }
      }
    }
  }
}