{
  "contracts/MaliciousReetrancyContract.sol": {
    "MaliciousReentrancyContract": {
      "abi": [
        {
          "inputs": [
            {
              "internalType": "address",
              "name": "_dex",
              "type": "address"
            },
            {
              "internalType": "address",
              "name": "_tokenA",
              "type": "address"
            },
            {
              "internalType": "address",
              "name": "_tokenB",
              "type": "address"
            }
          ],
          "stateMutability": "nonpayable",
          "type": "constructor"
        },
        {
          "inputs": [
            {
              "internalType": "address",
              "name": "dexAddress",
              "type": "address"
            },
            {
              "internalType": "uint256",
              "name": "amountA",
              "type": "uint256"
            },
            {
              "internalType": "uint256",
              "name": "amountB",
              "type": "uint256"
            }
          ],
          "name": "approveTokensForDEX",
          "outputs": [],
          "stateMutability": "nonpayable",
          "type": "function"
        },
        {
          "inputs": [
            {
              "internalType": "uint256",
              "name": "amountA",
              "type": "uint256"
            },
            {
              "internalType": "uint256",
              "name": "amountB",
              "type": "uint256"
            }
          ],
          "name": "attackAddLiquidity",
          "outputs": [],
          "stateMutability": "nonpayable",
          "type": "function"
        },
        {
          "inputs": [],
          "name": "attackCount",
          "outputs": [
            {
              "internalType": "uint256",
              "name": "",
              "type": "uint256"
            }
          ],
          "stateMutability": "view",
          "type": "function"
        },
        {
          "inputs": [],
          "name": "targetDEX",
          "outputs": [
            {
              "internalType": "contract SimpleDEX",
              "name": "",
              "type": "address"
            }
          ],
          "stateMutability": "view",
          "type": "function"
        },
        {
          "inputs": [],
          "name": "tokenA",
          "outputs": [
            {
              "internalType": "contract IERC20",
              "name": "",
              "type": "address"
            }
          ],
          "stateMutability": "view",
          "type": "function"
        },
        {
          "inputs": [],
          "name": "tokenB",
          "outputs": [
            {
              "internalType": "contract IERC20",
              "name": "",
              "type": "address"
            }
          ],
          "stateMutability": "view",
          "type": "function"
        },
        {
          "stateMutability": "payable",
          "type": "receive"
        }
      ],
      "evm": {
        "bytecode": {
          "linkReferences": {},
          "object": "608060405234801561001057600080fd5b50604051610cb1380380610cb18339818101604052810190610032919061015f565b826000806101000a81548173ffffffffffffffffffffffffffffffffffffffff021916908373ffffffffffffffffffffffffffffffffffffffff16021790555081600160006101000a81548173ffffffffffffffffffffffffffffffffffffffff021916908373ffffffffffffffffffffffffffffffffffffffff16021790555080600260006101000a81548173ffffffffffffffffffffffffffffffffffffffff021916908373ffffffffffffffffffffffffffffffffffffffff1602179055505050506101b2565b600080fd5b600073ffffffffffffffffffffffffffffffffffffffff82169050919050565b600061012c82610101565b9050919050565b61013c81610121565b811461014757600080fd5b50565b60008151905061015981610133565b92915050565b600080600060608486031215610178576101776100fc565b5b60006101868682870161014a565b93505060206101978682870161014a565b92505060406101a88682870161014a565b9150509250925092565b610af0806101c16000396000f3fe6080604052600436106100595760003560e01c80630fc63d101461012857806337ac0e5014610153578063407c28211461017c5780635f64b55b146101a7578063af46a1c4146101d2578063d3e7ff8b146101fb57610123565b366101235760016003541015610121576003600081548092919061007c90610704565b919050555060008054906101000a900473ffffffffffffffffffffffffffffffffffffffff1673ffffffffffffffffffffffffffffffffffffffff16639cd441da6064806040518363ffffffff1660e01b81526004016100dd929190610791565b6020604051808303816000875af192505050801561011957506040513d601f19601f8201168201806040525081019061011691906107eb565b60015b1561012057505b5b005b600080fd5b34801561013457600080fd5b5061013d610226565b60405161014a919061088d565b60405180910390f35b34801561015f57600080fd5b5061017a600480360381019061017591906108bd565b61024c565b005b34801561018857600080fd5b50610191610534565b60405161019e919061090c565b60405180910390f35b3480156101b357600080fd5b506101bc61053a565b6040516101c9919061088d565b60405180910390f35b3480156101de57600080fd5b506101f960048036038101906101f49190610965565b610560565b005b34801561020757600080fd5b506102106106a7565b60405161021d91906109d9565b60405180910390f35b600160009054906101000a900473ffffffffffffffffffffffffffffffffffffffff1681565b600160009054906101000a900473ffffffffffffffffffffffffffffffffffffffff1673ffffffffffffffffffffffffffffffffffffffff1663095ea7b360008054906101000a900473ffffffffffffffffffffffffffffffffffffffff16846040518363ffffffff1660e01b81526004016102c9929190610a03565b6020604051808303816000875af11580156102e8573d6000803e3d6000fd5b505050506040513d601f19601f8201168201806040525081019061030c9190610a64565b50600260009054906101000a900473ffffffffffffffffffffffffffffffffffffffff1673ffffffffffffffffffffffffffffffffffffffff1663095ea7b360008054906101000a900473ffffffffffffffffffffffffffffffffffffffff16836040518363ffffffff1660e01b815260040161038a929190610a03565b6020604051808303816000875af11580156103a9573d6000803e3d6000fd5b505050506040513d601f19601f820116820180604052508101906103cd9190610a64565b5060008054906101000a900473ffffffffffffffffffffffffffffffffffffffff1673ffffffffffffffffffffffffffffffffffffffff16639cd441da83836040518363ffffffff1660e01b8152600401610429929190610a91565b6020604051808303816000875af1158015610448573d6000803e3d6000fd5b505050506040513d601f19601f8201168201806040525081019061046c91906107eb565b5060016003541015610530576003600081548092919061048b90610704565b919050555060008054906101000a900473ffffffffffffffffffffffffffffffffffffffff1673ffffffffffffffffffffffffffffffffffffffff16639cd441da83836040518363ffffffff1660e01b81526004016104eb929190610a91565b6020604051808303816000875af115801561050a573d6000803e3d6000fd5b505050506040513d601f19601f8201168201806040525081019061052e91906107eb565b505b5050565b60035481565b600260009054906101000a900473ffffffffffffffffffffffffffffffffffffffff1681565b600160009054906101000a900473ffffffffffffffffffffffffffffffffffffffff1673ffffffffffffffffffffffffffffffffffffffff1663095ea7b384846040518363ffffffff1660e01b81526004016105bd929190610a03565b6020604051808303816000875af11580156105dc573d6000803e3d6000fd5b505050506040513d601f19601f820116820180604052508101906106009190610a64565b50600260009054906101000a900473ffffffffffffffffffffffffffffffffffffffff1673ffffffffffffffffffffffffffffffffffffffff1663095ea7b384836040518363ffffffff1660e01b815260040161065e929190610a03565b6020604051808303816000875af115801561067d573d6000803e3d6000fd5b505050506040513d601f19601f820116820180604052508101906106a19190610a64565b50505050565b60008054906101000a900473ffffffffffffffffffffffffffffffffffffffff1681565b7f4e487b7100000000000000000000000000000000000000000000000000000000600052601160045260246000fd5b6000819050919050565b600061070f826106fa565b91507fffffffffffffffffffffffffffffffffffffffffffffffffffffffffffffffff8203610741576107406106cb565b5b600182019050919050565b6000819050919050565b6000819050919050565b600061077b6107766107718461074c565b610756565b6106fa565b9050919050565b61078b81610760565b82525050565b60006040820190506107a66000830185610782565b6107b36020830184610782565b9392505050565b600080fd5b6107c8816106fa565b81146107d357600080fd5b50565b6000815190506107e5816107bf565b92915050565b600060208284031215610801576108006107ba565b5b600061080f848285016107d6565b91505092915050565b600073ffffffffffffffffffffffffffffffffffffffff82169050919050565b600061085361084e61084984610818565b610756565b610818565b9050919050565b600061086582610838565b9050919050565b60006108778261085a565b9050919050565b6108878161086c565b82525050565b60006020820190506108a2600083018461087e565b92915050565b6000813590506108b7816107bf565b92915050565b600080604083850312156108d4576108d36107ba565b5b60006108e2858286016108a8565b92505060206108f3858286016108a8565b9150509250929050565b610906816106fa565b82525050565b600060208201905061092160008301846108fd565b92915050565b600061093282610818565b9050919050565b61094281610927565b811461094d57600080fd5b50565b60008135905061095f81610939565b92915050565b60008060006060848603121561097e5761097d6107ba565b5b600061098c86828701610950565b935050602061099d868287016108a8565b92505060406109ae868287016108a8565b9150509250925092565b60006109c38261085a565b9050919050565b6109d3816109b8565b82525050565b60006020820190506109ee60008301846109ca565b92915050565b6109fd81610927565b82525050565b6000604082019050610a1860008301856109f4565b610a2560208301846108fd565b9392505050565b60008115159050919050565b610a4181610a2c565b8114610a4c57600080fd5b50565b600081519050610a5e81610a38565b92915050565b600060208284031215610a7a57610a796107ba565b5b6000610a8884828501610a4f565b91505092915050565b6000604082019050610aa660008301856108fd565b610ab360208301846108fd565b939250505056fea2646970667358221220305090fc258dc741ddff72178dadb79492b5a442128b757323e8aef43584778664736f6c634300081c0033",
          "opcodes": "PUSH1 0x80 PUSH1 0x40 MSTORE CALLVALUE DUP1 ISZERO PUSH2 0x10 JUMPI PUSH1 0x0 DUP1 REVERT JUMPDEST POP PUSH1 0x40 MLOAD PUSH2 0xCB1 CODESIZE SUB DUP1 PUSH2 0xCB1 DUP4 CODECOPY DUP2 DUP2 ADD PUSH1 0x40 MSTORE DUP2 ADD SWAP1 PUSH2 0x32 SWAP2 SWAP1 PUSH2 0x15F JUMP JUMPDEST DUP3 PUSH1 0x0 DUP1 PUSH2 0x100 EXP DUP2 SLOAD DUP2 PUSH20 0xFFFFFFFFFFFFFFFFFFFFFFFFFFFFFFFFFFFFFFFF MUL NOT AND SWAP1 DUP4 PUSH20 0xFFFFFFFFFFFFFFFFFFFFFFFFFFFFFFFFFFFFFFFF AND MUL OR SWAP1 SSTORE POP DUP2 PUSH1 0x1 PUSH1 0x0 PUSH2 0x100 EXP DUP2 SLOAD DUP2 PUSH20 0xFFFFFFFFFFFFFFFFFFFFFFFFFFFFFFFFFFFFFFFF MUL NOT AND SWAP1 DUP4 PUSH20 0xFFFFFFFFFFFFFFFFFFFFFFFFFFFFFFFFFFFFFFFF AND MUL OR SWAP1 SSTORE POP DUP1 PUSH1 0x2 PUSH1 0x0 PUSH2 0x100 EXP DUP2 SLOAD DUP2 PUSH20 0xFFFFFFFFFFFFFFFFFFFFFFFFFFFFFFFFFFFFFFFF MUL NOT AND SWAP1 DUP4 PUSH20 0xFFFFFFFFFFFFFFFFFFFFFFFFFFFFFFFFFFFFFFFF AND MUL OR SWAP1 SSTORE POP POP POP POP PUSH2 0x1B2 JUMP JUMPDEST PUSH1 0x0 DUP1 REVERT JUMPDEST PUSH1 0x0 PUSH20 0xFFFFFFFFFFFFFFFFFFFFFFFFFFFFFFFFFFFFFFFF DUP3 AND SWAP1 POP SWAP2 SWAP1 POP JUMP JUMPDEST PUSH1 0x0 PUSH2 0x12C DUP3 PUSH2 0x101 JUMP JUMPDEST SWAP1 POP SWAP2 SWAP1 POP JUMP JUMPDEST PUSH2 0x13C DUP2 PUSH2 0x121 JUMP JUMPDEST DUP2 EQ PUSH2 0x147 JUMPI PUSH1 0x0 DUP1 REVERT JUMPDEST POP JUMP JUMPDEST PUSH1 0x0 DUP2 MLOAD SWAP1 POP PUSH2 0x159 DUP2 PUSH2 0x133 JUMP JUMPDEST SWAP3 SWAP2 POP POP JUMP JUMPDEST PUSH1 0x0 DUP1 PUSH1 0x0 PUSH1 0x60 DUP5 DUP7 SUB SLT ISZERO PUSH2 0x178 JUMPI PUSH2 0x177 PUSH2 0xFC JUMP JUMPDEST JUMPDEST PUSH1 0x0 PUSH2 0x186 DUP7 DUP3 DUP8 ADD PUSH2 0x14A JUMP JUMPDEST SWAP4 POP POP PUSH1 0x20 PUSH2 0x197 DUP7 DUP3 DUP8 ADD PUSH2 0x14A JUMP JUMPDEST SWAP3 POP POP PUSH1 0x40 PUSH2 0x1A8 DUP7 DUP3 DUP8 ADD PUSH2 0x14A JUMP JUMPDEST SWAP2 POP POP SWAP3 POP SWAP3 POP SWAP3 JUMP JUMPDEST PUSH2 0xAF0 DUP1 PUSH2 0x1C1 PUSH1 0x0 CODECOPY PUSH1 0x0 RETURN INVALID PUSH1 0x80 PUSH1 0x40 MSTORE PUSH1 0x4 CALLDATASIZE LT PUSH2 0x59 JUMPI PUSH1 0x0 CALLDATALOAD PUSH1 0xE0 SHR DUP1 PUSH4 0xFC63D10 EQ PUSH2 0x128 JUMPI DUP1 PUSH4 0x37AC0E50 EQ PUSH2 0x153 JUMPI DUP1 PUSH4 0x407C2821 EQ PUSH2 0x17C JUMPI DUP1 PUSH4 0x5F64B55B EQ PUSH2 0x1A7 JUMPI DUP1 PUSH4 0xAF46A1C4 EQ PUSH2 0x1D2 JUMPI DUP1 PUSH4 0xD3E7FF8B EQ PUSH2 0x1FB JUMPI PUSH2 0x123 JUMP JUMPDEST CALLDATASIZE PUSH2 0x123 JUMPI PUSH1 0x1 PUSH1 0x3 SLOAD LT ISZERO PUSH2 0x121 JUMPI PUSH1 0x3 PUSH1 0x0 DUP2 SLOAD DUP1 SWAP3 SWAP2 SWAP1 PUSH2 0x7C SWAP1 PUSH2 0x704 JUMP JUMPDEST SWAP2 SWAP1 POP SSTORE POP PUSH1 0x0 DUP1 SLOAD SWAP1 PUSH2 0x100 EXP SWAP1 DIV PUSH20 0xFFFFFFFFFFFFFFFFFFFFFFFFFFFFFFFFFFFFFFFF AND PUSH20 0xFFFFFFFFFFFFFFFFFFFFFFFFFFFFFFFFFFFFFFFF AND PUSH4 0x9CD441DA PUSH1 0x64 DUP1 PUSH1 0x40 MLOAD DUP4 PUSH4 0xFFFFFFFF AND PUSH1 0xE0 SHL DUP2 MSTORE PUSH1 0x4 ADD PUSH2 0xDD SWAP3 SWAP2 SWAP1 PUSH2 0x791 JUMP JUMPDEST PUSH1 0x20 PUSH1 0x40 MLOAD DUP1 DUP4 SUB DUP2 PUSH1 0x0 DUP8 GAS CALL SWAP3 POP POP POP DUP1 ISZERO PUSH2 0x119 JUMPI POP PUSH1 0x40 MLOAD RETURNDATASIZE PUSH1 0x1F NOT PUSH1 0x1F DUP3 ADD AND DUP3 ADD DUP1 PUSH1 0x40 MSTORE POP DUP2 ADD SWAP1 PUSH2 0x116 SWAP2 SWAP1 PUSH2 0x7EB JUMP JUMPDEST PUSH1 0x1 JUMPDEST ISZERO PUSH2 0x120 JUMPI POP JUMPDEST JUMPDEST STOP JUMPDEST PUSH1 0x0 DUP1 REVERT JUMPDEST CALLVALUE DUP1 ISZERO PUSH2 0x134 JUMPI PUSH1 0x0 DUP1 REVERT JUMPDEST POP PUSH2 0x13D PUSH2 0x226 JUMP JUMPDEST PUSH1 0x40 MLOAD PUSH2 0x14A SWAP2 SWAP1 PUSH2 0x88D JUMP JUMPDEST PUSH1 0x40 MLOAD DUP1 SWAP2 SUB SWAP1 RETURN JUMPDEST CALLVALUE DUP1 ISZERO PUSH2 0x15F JUMPI PUSH1 0x0 DUP1 REVERT JUMPDEST POP PUSH2 0x17A PUSH1 0x4 DUP1 CALLDATASIZE SUB DUP2 ADD SWAP1 PUSH2 0x175 SWAP2 SWAP1 PUSH2 0x8BD JUMP JUMPDEST PUSH2 0x24C JUMP JUMPDEST STOP JUMPDEST CALLVALUE DUP1 ISZERO PUSH2 0x188 JUMPI PUSH1 0x0 DUP1 REVERT JUMPDEST POP PUSH2 0x191 PUSH2 0x534 JUMP JUMPDEST PUSH1 0x40 MLOAD PUSH2 0x19E SWAP2 SWAP1 PUSH2 0x90C JUMP JUMPDEST PUSH1 0x40 MLOAD DUP1 SWAP2 SUB SWAP1 RETURN JUMPDEST CALLVALUE DUP1 ISZERO PUSH2 0x1B3 JUMPI PUSH1 0x0 DUP1 REVERT JUMPDEST POP PUSH2 0x1BC PUSH2 0x53A JUMP JUMPDEST PUSH1 0x40 MLOAD PUSH2 0x1C9 SWAP2 SWAP1 PUSH2 0x88D JUMP JUMPDEST PUSH1 0x40 MLOAD DUP1 SWAP2 SUB SWAP1 RETURN JUMPDEST CALLVALUE DUP1 ISZERO PUSH2 0x1DE JUMPI PUSH1 0x0 DUP1 REVERT JUMPDEST POP PUSH2 0x1F9 PUSH1 0x4 DUP1 CALLDATASIZE SUB DUP2 ADD SWAP1 PUSH2 0x1F4 SWAP2 SWAP1 PUSH2 0x965 JUMP JUMPDEST PUSH2 0x560 JUMP JUMPDEST STOP JUMPDEST CALLVALUE DUP1 ISZERO PUSH2 0x207 JUMPI PUSH1 0x0 DUP1 REVERT JUMPDEST POP PUSH2 0x210 PUSH2 0x6A7 JUMP JUMPDEST PUSH1 0x40 MLOAD PUSH2 0x21D SWAP2 SWAP1 PUSH2 0x9D9 JUMP JUMPDEST PUSH1 0x40 MLOAD DUP1 SWAP2 SUB SWAP1 RETURN JUMPDEST PUSH1 0x1 PUSH1 0x0 SWAP1 SLOAD SWAP1 PUSH2 0x100 EXP SWAP1 DIV PUSH20 0xFFFFFFFFFFFFFFFFFFFFFFFFFFFFFFFFFFFFFFFF AND DUP2 JUMP JUMPDEST PUSH1 0x1 PUSH1 0x0 SWAP1 SLOAD SWAP1 PUSH2 0x100 EXP SWAP1 DIV PUSH20 0xFFFFFFFFFFFFFFFFFFFFFFFFFFFFFFFFFFFFFFFF AND PUSH20 0xFFFFFFFFFFFFFFFFFFFFFFFFFFFFFFFFFFFFFFFF AND PUSH4 0x95EA7B3 PUSH1 0x0 DUP1 SLOAD SWAP1 PUSH2 0x100 EXP SWAP1 DIV PUSH20 0xFFFFFFFFFFFFFFFFFFFFFFFFFFFFFFFFFFFFFFFF AND DUP5 PUSH1 0x40 MLOAD DUP4 PUSH4 0xFFFFFFFF AND PUSH1 0xE0 SHL DUP2 MSTORE PUSH1 0x4 ADD PUSH2 0x2C9 SWAP3 SWAP2 SWAP1 PUSH2 0xA03 JUMP JUMPDEST PUSH1 0x20 PUSH1 0x40 MLOAD DUP1 DUP4 SUB DUP2 PUSH1 0x0 DUP8 GAS CALL ISZERO DUP1 ISZERO PUSH2 0x2E8 JUMPI RETURNDATASIZE PUSH1 0x0 DUP1 RETURNDATACOPY RETURNDATASIZE PUSH1 0x0 REVERT JUMPDEST POP POP POP POP PUSH1 0x40 MLOAD RETURNDATASIZE PUSH1 0x1F NOT PUSH1 0x1F DUP3 ADD AND DUP3 ADD DUP1 PUSH1 0x40 MSTORE POP DUP2 ADD SWAP1 PUSH2 0x30C SWAP2 SWAP1 PUSH2 0xA64 JUMP JUMPDEST POP PUSH1 0x2 PUSH1 0x0 SWAP1 SLOAD SWAP1 PUSH2 0x100 EXP SWAP1 DIV PUSH20 0xFFFFFFFFFFFFFFFFFFFFFFFFFFFFFFFFFFFFFFFF AND PUSH20 0xFFFFFFFFFFFFFFFFFFFFFFFFFFFFFFFFFFFFFFFF AND PUSH4 0x95EA7B3 PUSH1 0x0 DUP1 SLOAD SWAP1 PUSH2 0x100 EXP SWAP1 DIV PUSH20 0xFFFFFFFFFFFFFFFFFFFFFFFFFFFFFFFFFFFFFFFF AND DUP4 PUSH1 0x40 MLOAD DUP4 PUSH4 0xFFFFFFFF AND PUSH1 0xE0 SHL DUP2 MSTORE PUSH1 0x4 ADD PUSH2 0x38A SWAP3 SWAP2 SWAP1 PUSH2 0xA03 JUMP JUMPDEST PUSH1 0x20 PUSH1 0x40 MLOAD DUP1 DUP4 SUB DUP2 PUSH1 0x0 DUP8 GAS CALL ISZERO DUP1 ISZERO PUSH2 0x3A9 JUMPI RETURNDATASIZE PUSH1 0x0 DUP1 RETURNDATACOPY RETURNDATASIZE PUSH1 0x0 REVERT JUMPDEST POP POP POP POP PUSH1 0x40 MLOAD RETURNDATASIZE PUSH1 0x1F NOT PUSH1 0x1F DUP3 ADD AND DUP3 ADD DUP1 PUSH1 0x40 MSTORE POP DUP2 ADD SWAP1 PUSH2 0x3CD SWAP2 SWAP1 PUSH2 0xA64 JUMP JUMPDEST POP PUSH1 0x0 DUP1 SLOAD SWAP1 PUSH2 0x100 EXP SWAP1 DIV PUSH20 0xFFFFFFFFFFFFFFFFFFFFFFFFFFFFFFFFFFFFFFFF AND PUSH20 0xFFFFFFFFFFFFFFFFFFFFFFFFFFFFFFFFFFFFFFFF AND PUSH4 0x9CD441DA DUP4 DUP4 PUSH1 0x40 MLOAD DUP4 PUSH4 0xFFFFFFFF AND PUSH1 0xE0 SHL DUP2 MSTORE PUSH1 0x4 ADD PUSH2 0x429 SWAP3 SWAP2 SWAP1 PUSH2 0xA91 JUMP JUMPDEST PUSH1 0x20 PUSH1 0x40 MLOAD DUP1 DUP4 SUB DUP2 PUSH1 0x0 DUP8 GAS CALL ISZERO DUP1 ISZERO PUSH2 0x448 JUMPI RETURNDATASIZE PUSH1 0x0 DUP1 RETURNDATACOPY RETURNDATASIZE PUSH1 0x0 REVERT JUMPDEST POP POP POP POP PUSH1 0x40 MLOAD RETURNDATASIZE PUSH1 0x1F NOT PUSH1 0x1F DUP3 ADD AND DUP3 ADD DUP1 PUSH1 0x40 MSTORE POP DUP2 ADD SWAP1 PUSH2 0x46C SWAP2 SWAP1 PUSH2 0x7EB JUMP JUMPDEST POP PUSH1 0x1 PUSH1 0x3 SLOAD LT ISZERO PUSH2 0x530 JUMPI PUSH1 0x3 PUSH1 0x0 DUP2 SLOAD DUP1 SWAP3 SWAP2 SWAP1 PUSH2 0x48B SWAP1 PUSH2 0x704 JUMP JUMPDEST SWAP2 SWAP1 POP SSTORE POP PUSH1 0x0 DUP1 SLOAD SWAP1 PUSH2 0x100 EXP SWAP1 DIV PUSH20 0xFFFFFFFFFFFFFFFFFFFFFFFFFFFFFFFFFFFFFFFF AND PUSH20 0xFFFFFFFFFFFFFFFFFFFFFFFFFFFFFFFFFFFFFFFF AND PUSH4 0x9CD441DA DUP4 DUP4 PUSH1 0x40 MLOAD DUP4 PUSH4 0xFFFFFFFF AND PUSH1 0xE0 SHL DUP2 MSTORE PUSH1 0x4 ADD PUSH2 0x4EB SWAP3 SWAP2 SWAP1 PUSH2 0xA91 JUMP JUMPDEST PUSH1 0x20 PUSH1 0x40 MLOAD DUP1 DUP4 SUB DUP2 PUSH1 0x0 DUP8 GAS CALL ISZERO DUP1 ISZERO PUSH2 0x50A JUMPI RETURNDATASIZE PUSH1 0x0 DUP1 RETURNDATACOPY RETURNDATASIZE PUSH1 0x0 REVERT JUMPDEST POP POP POP POP PUSH1 0x40 MLOAD RETURNDATASIZE PUSH1 0x1F NOT PUSH1 0x1F DUP3 ADD AND DUP3 ADD DUP1 PUSH1 0x40 MSTORE POP DUP2 ADD SWAP1 PUSH2 0x52E SWAP2 SWAP1 PUSH2 0x7EB JUMP JUMPDEST POP JUMPDEST POP POP JUMP JUMPDEST PUSH1 0x3 SLOAD DUP2 JUMP JUMPDEST PUSH1 0x2 PUSH1 0x0 SWAP1 SLOAD SWAP1 PUSH2 0x100 EXP SWAP1 DIV PUSH20 0xFFFFFFFFFFFFFFFFFFFFFFFFFFFFFFFFFFFFFFFF AND DUP2 JUMP JUMPDEST PUSH1 0x1 PUSH1 0x0 SWAP1 SLOAD SWAP1 PUSH2 0x100 EXP SWAP1 DIV PUSH20 0xFFFFFFFFFFFFFFFFFFFFFFFFFFFFFFFFFFFFFFFF AND PUSH20 0xFFFFFFFFFFFFFFFFFFFFFFFFFFFFFFFFFFFFFFFF AND PUSH4 0x95EA7B3 DUP5 DUP5 PUSH1 0x40 MLOAD DUP4 PUSH4 0xFFFFFFFF AND PUSH1 0xE0 SHL DUP2 MSTORE PUSH1 0x4 ADD PUSH2 0x5BD SWAP3 SWAP2 SWAP1 PUSH2 0xA03 JUMP JUMPDEST PUSH1 0x20 PUSH1 0x40 MLOAD DUP1 DUP4 SUB DUP2 PUSH1 0x0 DUP8 GAS CALL ISZERO DUP1 ISZERO PUSH2 0x5DC JUMPI RETURNDATASIZE PUSH1 0x0 DUP1 RETURNDATACOPY RETURNDATASIZE PUSH1 0x0 REVERT JUMPDEST POP POP POP POP PUSH1 0x40 MLOAD RETURNDATASIZE PUSH1 0x1F NOT PUSH1 0x1F DUP3 ADD AND DUP3 ADD DUP1 PUSH1 0x40 MSTORE POP DUP2 ADD SWAP1 PUSH2 0x600 SWAP2 SWAP1 PUSH2 0xA64 JUMP JUMPDEST POP PUSH1 0x2 PUSH1 0x0 SWAP1 SLOAD SWAP1 PUSH2 0x100 EXP SWAP1 DIV PUSH20 0xFFFFFFFFFFFFFFFFFFFFFFFFFFFFFFFFFFFFFFFF AND PUSH20 0xFFFFFFFFFFFFFFFFFFFFFFFFFFFFFFFFFFFFFFFF AND PUSH4 0x95EA7B3 DUP5 DUP4 PUSH1 0x40 MLOAD DUP4 PUSH4 0xFFFFFFFF AND PUSH1 0xE0 SHL DUP2 MSTORE PUSH1 0x4 ADD PUSH2 0x65E SWAP3 SWAP2 SWAP1 PUSH2 0xA03 JUMP JUMPDEST PUSH1 0x20 PUSH1 0x40 MLOAD DUP1 DUP4 SUB DUP2 PUSH1 0x0 DUP8 GAS CALL ISZERO DUP1 ISZERO PUSH2 0x67D JUMPI RETURNDATASIZE PUSH1 0x0 DUP1 RETURNDATACOPY RETURNDATASIZE PUSH1 0x0 REVERT JUMPDEST POP POP POP POP PUSH1 0x40 MLOAD RETURNDATASIZE PUSH1 0x1F NOT PUSH1 0x1F DUP3 ADD AND DUP3 ADD DUP1 PUSH1 0x40 MSTORE POP DUP2 ADD SWAP1 PUSH2 0x6A1 SWAP2 SWAP1 PUSH2 0xA64 JUMP JUMPDEST POP POP POP POP JUMP JUMPDEST PUSH1 0x0 DUP1 SLOAD SWAP1 PUSH2 0x100 EXP SWAP1 DIV PUSH20 0xFFFFFFFFFFFFFFFFFFFFFFFFFFFFFFFFFFFFFFFF AND DUP2 JUMP JUMPDEST PUSH32 0x4E487B7100000000000000000000000000000000000000000000000000000000 PUSH1 0x0 MSTORE PUSH1 0x11 PUSH1 0x4 MSTORE PUSH1 0x24 PUSH1 0x0 REVERT JUMPDEST PUSH1 0x0 DUP2 SWAP1 POP SWAP2 SWAP1 POP JUMP JUMPDEST PUSH1 0x0 PUSH2 0x70F DUP3 PUSH2 0x6FA JUMP JUMPDEST SWAP2 POP PUSH32 0xFFFFFFFFFFFFFFFFFFFFFFFFFFFFFFFFFFFFFFFFFFFFFFFFFFFFFFFFFFFFFFFF DUP3 SUB PUSH2 0x741 JUMPI PUSH2 0x740 PUSH2 0x6CB JUMP JUMPDEST JUMPDEST PUSH1 0x1 DUP3 ADD SWAP1 POP SWAP2 SWAP1 POP JUMP JUMPDEST PUSH1 0x0 DUP2 SWAP1 POP SWAP2 SWAP1 POP JUMP JUMPDEST PUSH1 0x0 DUP2 SWAP1 POP SWAP2 SWAP1 POP JUMP JUMPDEST PUSH1 0x0 PUSH2 0x77B PUSH2 0x776 PUSH2 0x771 DUP5 PUSH2 0x74C JUMP JUMPDEST PUSH2 0x756 JUMP JUMPDEST PUSH2 0x6FA JUMP JUMPDEST SWAP1 POP SWAP2 SWAP1 POP JUMP JUMPDEST PUSH2 0x78B DUP2 PUSH2 0x760 JUMP JUMPDEST DUP3 MSTORE POP POP JUMP JUMPDEST PUSH1 0x0 PUSH1 0x40 DUP3 ADD SWAP1 POP PUSH2 0x7A6 PUSH1 0x0 DUP4 ADD DUP6 PUSH2 0x782 JUMP JUMPDEST PUSH2 0x7B3 PUSH1 0x20 DUP4 ADD DUP5 PUSH2 0x782 JUMP JUMPDEST SWAP4 SWAP3 POP POP POP JUMP JUMPDEST PUSH1 0x0 DUP1 REVERT JUMPDEST PUSH2 0x7C8 DUP2 PUSH2 0x6FA JUMP JUMPDEST DUP2 EQ PUSH2 0x7D3 JUMPI PUSH1 0x0 DUP1 REVERT JUMPDEST POP JUMP JUMPDEST PUSH1 0x0 DUP2 MLOAD SWAP1 POP PUSH2 0x7E5 DUP2 PUSH2 0x7BF JUMP JUMPDEST SWAP3 SWAP2 POP POP JUMP JUMPDEST PUSH1 0x0 PUSH1 0x20 DUP3 DUP5 SUB SLT ISZERO PUSH2 0x801 JUMPI PUSH2 0x800 PUSH2 0x7BA JUMP JUMPDEST JUMPDEST PUSH1 0x0 PUSH2 0x80F DUP5 DUP3 DUP6 ADD PUSH2 0x7D6 JUMP JUMPDEST SWAP2 POP POP SWAP3 SWAP2 POP POP JUMP JUMPDEST PUSH1 0x0 PUSH20 0xFFFFFFFFFFFFFFFFFFFFFFFFFFFFFFFFFFFFFFFF DUP3 AND SWAP1 POP SWAP2 SWAP1 POP JUMP JUMPDEST PUSH1 0x0 PUSH2 0x853 PUSH2 0x84E PUSH2 0x849 DUP5 PUSH2 0x818 JUMP JUMPDEST PUSH2 0x756 JUMP JUMPDEST PUSH2 0x818 JUMP JUMPDEST SWAP1 POP SWAP2 SWAP1 POP JUMP JUMPDEST PUSH1 0x0 PUSH2 0x865 DUP3 PUSH2 0x838 JUMP JUMPDEST SWAP1 POP SWAP2 SWAP1 POP JUMP JUMPDEST PUSH1 0x0 PUSH2 0x877 DUP3 PUSH2 0x85A JUMP JUMPDEST SWAP1 POP SWAP2 SWAP1 POP JUMP JUMPDEST PUSH2 0x887 DUP2 PUSH2 0x86C JUMP JUMPDEST DUP3 MSTORE POP POP JUMP JUMPDEST PUSH1 0x0 PUSH1 0x20 DUP3 ADD SWAP1 POP PUSH2 0x8A2 PUSH1 0x0 DUP4 ADD DUP5 PUSH2 0x87E JUMP JUMPDEST SWAP3 SWAP2 POP POP JUMP JUMPDEST PUSH1 0x0 DUP2 CALLDATALOAD SWAP1 POP PUSH2 0x8B7 DUP2 PUSH2 0x7BF JUMP JUMPDEST SWAP3 SWAP2 POP POP JUMP JUMPDEST PUSH1 0x0 DUP1 PUSH1 0x40 DUP4 DUP6 SUB SLT ISZERO PUSH2 0x8D4 JUMPI PUSH2 0x8D3 PUSH2 0x7BA JUMP JUMPDEST JUMPDEST PUSH1 0x0 PUSH2 0x8E2 DUP6 DUP3 DUP7 ADD PUSH2 0x8A8 JUMP JUMPDEST SWAP3 POP POP PUSH1 0x20 PUSH2 0x8F3 DUP6 DUP3 DUP7 ADD PUSH2 0x8A8 JUMP JUMPDEST SWAP2 POP POP SWAP3 POP SWAP3 SWAP1 POP JUMP JUMPDEST PUSH2 0x906 DUP2 PUSH2 0x6FA JUMP JUMPDEST DUP3 MSTORE POP POP JUMP JUMPDEST PUSH1 0x0 PUSH1 0x20 DUP3 ADD SWAP1 POP PUSH2 0x921 PUSH1 0x0 DUP4 ADD DUP5 PUSH2 0x8FD JUMP JUMPDEST SWAP3 SWAP2 POP POP JUMP JUMPDEST PUSH1 0x0 PUSH2 0x932 DUP3 PUSH2 0x818 JUMP JUMPDEST SWAP1 POP SWAP2 SWAP1 POP JUMP JUMPDEST PUSH2 0x942 DUP2 PUSH2 0x927 JUMP JUMPDEST DUP2 EQ PUSH2 0x94D JUMPI PUSH1 0x0 DUP1 REVERT JUMPDEST POP JUMP JUMPDEST PUSH1 0x0 DUP2 CALLDATALOAD SWAP1 POP PUSH2 0x95F DUP2 PUSH2 0x939 JUMP JUMPDEST SWAP3 SWAP2 POP POP JUMP JUMPDEST PUSH1 0x0 DUP1 PUSH1 0x0 PUSH1 0x60 DUP5 DUP7 SUB SLT ISZERO PUSH2 0x97E JUMPI PUSH2 0x97D PUSH2 0x7BA JUMP JUMPDEST JUMPDEST PUSH1 0x0 PUSH2 0x98C DUP7 DUP3 DUP8 ADD PUSH2 0x950 JUMP JUMPDEST SWAP4 POP POP PUSH1 0x20 PUSH2 0x99D DUP7 DUP3 DUP8 ADD PUSH2 0x8A8 JUMP JUMPDEST SWAP3 POP POP PUSH1 0x40 PUSH2 0x9AE DUP7 DUP3 DUP8 ADD PUSH2 0x8A8 JUMP JUMPDEST SWAP2 POP POP SWAP3 POP SWAP3 POP SWAP3 JUMP JUMPDEST PUSH1 0x0 PUSH2 0x9C3 DUP3 PUSH2 0x85A JUMP JUMPDEST SWAP1 POP SWAP2 SWAP1 POP JUMP JUMPDEST PUSH2 0x9D3 DUP2 PUSH2 0x9B8 JUMP JUMPDEST DUP3 MSTORE POP POP JUMP JUMPDEST PUSH1 0x0 PUSH1 0x20 DUP3 ADD SWAP1 POP PUSH2 0x9EE PUSH1 0x0 DUP4 ADD DUP5 PUSH2 0x9CA JUMP JUMPDEST SWAP3 SWAP2 POP POP JUMP JUMPDEST PUSH2 0x9FD DUP2 PUSH2 0x927 JUMP JUMPDEST DUP3 MSTORE POP POP JUMP JUMPDEST PUSH1 0x0 PUSH1 0x40 DUP3 ADD SWAP1 POP PUSH2 0xA18 PUSH1 0x0 DUP4 ADD DUP6 PUSH2 0x9F4 JUMP JUMPDEST PUSH2 0xA25 PUSH1 0x20 DUP4 ADD DUP5 PUSH2 0x8FD JUMP JUMPDEST SWAP4 SWAP3 POP POP POP JUMP JUMPDEST PUSH1 0x0 DUP2 ISZERO ISZERO SWAP1 POP SWAP2 SWAP1 POP JUMP JUMPDEST PUSH2 0xA41 DUP2 PUSH2 0xA2C JUMP JUMPDEST DUP2 EQ PUSH2 0xA4C JUMPI PUSH1 0x0 DUP1 REVERT JUMPDEST POP JUMP JUMPDEST PUSH1 0x0 DUP2 MLOAD SWAP1 POP PUSH2 0xA5E DUP2 PUSH2 0xA38 JUMP JUMPDEST SWAP3 SWAP2 POP POP JUMP JUMPDEST PUSH1 0x0 PUSH1 0x20 DUP3 DUP5 SUB SLT ISZERO PUSH2 0xA7A JUMPI PUSH2 0xA79 PUSH2 0x7BA JUMP JUMPDEST JUMPDEST PUSH1 0x0 PUSH2 0xA88 DUP5 DUP3 DUP6 ADD PUSH2 0xA4F JUMP JUMPDEST SWAP2 POP POP SWAP3 SWAP2 POP POP JUMP JUMPDEST PUSH1 0x0 PUSH1 0x40 DUP3 ADD SWAP1 POP PUSH2 0xAA6 PUSH1 0x0 DUP4 ADD DUP6 PUSH2 0x8FD JUMP JUMPDEST PUSH2 0xAB3 PUSH1 0x20 DUP4 ADD DUP5 PUSH2 0x8FD JUMP JUMPDEST SWAP4 SWAP3 POP POP POP JUMP INVALID LOG2 PUSH5 0x6970667358 0x22 SLT KECCAK256 ADDRESS POP SWAP1 0xFC 0x25 DUP14 0xC7 COINBASE 0xDD SELFDESTRUCT PUSH19 0x178DADB79492B5A442128B757323E8AEF43584 PUSH24 0x8664736F6C634300081C0033000000000000000000000000 "
        },
        "methodIdentifiers": {
          "approveTokensForDEX(address,uint256,uint256)": "af46a1c4",
          "attackAddLiquidity(uint256,uint256)": "37ac0e50",
          "attackCount()": "407c2821",
          "targetDEX()": "d3e7ff8b",
          "tokenA()": "0fc63d10",
          "tokenB()": "5f64b55b"
        }
      }
    }
  }
}